:100000000C943E000C945B000C945B000C945B0021
:100010000C945B000C945B000C945B000C945B00F4
:100020000C945B000C946A020C945B000C945B00D3
:100030000C945B000C945B000C945B000C945B00D4
:100040000C945D000C945B000C945B000C945B00C2
:100050000C945B000C945B000C945B000C945B00B4
:100060000C945B000C945B000C945B000C945B00A4
:100070000C945B000C945B000C945B0011241FBE7D
:10008000CFEFD8E0DEBFCDBF11E0A0E0B1E0E6E108
:10009000F5E202C005900D92A831B107D9F713E03F
:1000A000A8E1B1E001C01D92A039B107E1F70E94BB
:1000B000D8000C9489120C9400001F920F920FB676
:1000C0000F9211242F933F934F938F939F93EF930E
:1000D000FF9340911A01413009F045C0809117010A
:1000E0008130E9F42091180130911901F901E057AC
:1000F000FD4F808190E090938900809388002F5F6E
:100100003F4F30931901209318018091180190916D
:1001100019018050914039F51092170120C080914B
:100120001701882301F52091180130911901F90177
:10013000E65CFE4F808190E0909389008093880078
:100140002F5F3F4F309319012093180180911801C0
:10015000909119018050914031F440931701109211
:10016000190110921801FF91EF919F918F914F917A
:100170003F912F910F900FBE0F901F90189582E026
:1001800084BD85BD80936E00089581EC80938000CE
:1001900089E080938100089582E08093B00095E02B
:1001A0009093B100809370008DE78093B300089521
:1001B000A0E0B0E0EEEDF0E00C94910F8AB1806623
:1001C0008AB98FEF87B92098219885B1836085B966
:1001D0008BB18F798BB98BB18F798BB90E947A0EE5
:1001E000789420E137E200E911E005C0C8010197E9
:1001F000F1F72150304021153105C1F784E692E036
:100200000E94F50A892B19F020E137E2EFCF8CE349
:1002100092E060E071E00E94E707892B09F053C18A
:100220008CE392E062E271E00E941006892BA1F457
:1002300080912B01882381F080912A01827161F4E1
:100240008BE291E064E071E00E94CE0F009721F014
:100250008BE291E00E94D40E42E0D42E31EC732E5A
:1002600029E0822EA12C92E0B92E99249394C0E922
:10027000D1E088E0C82E80E091E06BE271E00E945E
:10028000C30F0E943208892B09F018C1D4BCD5BC19
:10029000D0926E00709280008092810080E992E09E
:1002A0006CE070E048E351E00E948A08892B19F75E
:1002B00080913801909139010C97E9F6809198026C
:1002C00090919902A0919A02B0919B028755914416
:1002D000A645B54481F680E992E068E070E048E325
:1002E00051E00E948A088091380190913901089765
:1002F00009F0C1CFE0909402F0909502009196022F
:10030000109197028091900290919102A091920297
:10031000B09193028C3429E4920723E5A20724E5E7
:10032000B20709F45EC08D3429E4920723E5A207E1
:1003300024E5B20738F486569D46A447B04209F03A
:100340009ACF10C0843621E6920724E7A20721E65F
:10035000B20709F457C086569146A346B44709F040
:100360008ACF3FC0D801C7014097A109B10985359F
:100370009105A105B10508F07ECF80E992E0B701B3
:1003800048E351E00E948A08809138019091390138
:10039000A0E0B0E08E159F05A007B10709F06BCF74
:1003A00080919002813009F066CF80919202815055
:1003B000823008F060CF80919E02883019F0803141
:1003C00009F059CF209194023091950240E050E01D
:1003D00060E874E88EE190E00E94710F215027BD23
:1003E0007ACF80917C0290917D02A0917E02B091A3
:1003F0007F02E80EF91E0A1F1B1FC801B7010E94E9
:10040000EA0469CF8FEFE816F1040105110509F040
:1004100008F431CF10926102109221011092200154
:1004200080917C0290917D029170B501681B790BDF
:1004300080E992E048E351E00E948A0880E992E076
:1004400060E071E048E351E00E948A08892B31F0B6
:10045000C8B8809161028823E1F70DCF90921A010C
:100460001091170180911701813019F48AE391E00E
:1004700002C080E992E060E071E048E351E00E9450
:100480008A08892B11F0C8B817C080911701181776
:10049000E1F319990AC010921A0188E893E1FE016C
:1004A0003197F1F70197D9F707C080913801909102
:1004B000390180509140A1F210921A01809161029D
:1004C0008823E1F7D8CE81E090E0CDB7DEB7EDE04C
:1004D0000C94AD0F1F920F920FB60F9211240F9331
:1004E0001F932F933F934F935F936F937F938F93BC
:1004F0009F93AF93BF93EF93FF9380913A029091B4
:100500003B02019690933B0280933A02885E9340AF
:1005100009F052C010923B0210923A0280914C02B4
:100520008F5F80934C028C33A1F410924C02809127
:1005300062028F5F809362028C3359F410926202E0
:10054000809163028F5F80936302883111F410926F
:1005500063020DE412E08DB79EB70A970FB6F894C8
:100560009EBF0FBE8DBFEDB7FEB73196ADB7BEB71C
:1005700012961C930E93119788E091E093838283E7
:100580008091630284831582809162028683178240
:1005900080914C02808711860E94E80F8DB79EB72C
:1005A0000A960FB6F8949EBF0FBE8DBF80EC0E94D6
:1005B0006F0EC8010E94D40EFF91EF91BF91AF91D1
:1005C0009F918F917F916F915F914F913F912F916B
:1005D0001F910F910F900FBE0F901F901895A0E0E4
:1005E000B0E0E5EFF2E00C94960F6C01C0911B01B6
:1005F000D0911C01FC011182108224813581468139
:100600005781213031054105510509F45CC08885C9
:100610009985AA85BB85281739074A075B0708F023
:1006200052C0211531054105510539F488818330C7
:1006300021F4288939894A895B89F6012087318725
:1006400042875387211531054105510581F18EEF10
:10065000E82E8FEFF82E8FEF082F8FEF182FE20E76
:10066000F31E041F151F88859985AA85BB850297EF
:10067000A109B109E816F9060A071B0728F020E0CE
:1006800030E040E050E017C0298130E040E050E029
:10069000C801B7010E941C0F9B01AC018C899D8988
:1006A000AE89BF89280F391F4A1F5B1F04C02889E4
:1006B00039894A895B89F6012487358746875787B8
:1006C00020E030E002C021E030E0C901CDB7DEB764
:1006D000E8E00C94B20FA4E0B0E0E1E7F3E00C94A2
:1006E000900F4B015C0160901B0170901C0182E037
:1006F00088169104A104B10408F4B4C0F301808504
:100700009185A285B38588169906AA06BB0608F0CE
:10071000A9C08081823009F45FC0833009F47BC0B6
:10072000813009F09FC0C40196958795880D991D69
:100730009C013170892F992786956C01EE24FF2446
:10074000F3014485558566857785CE010196F1E0F4
:100750002F3F3F0749F0C40ED51EE61EF71EB70116
:10076000A60102E010E01EC04C0D5D1D6E1D7F1D38
:100770002FEF31E001E010E00E947C0C892B09F0A2
:1007800071C0F30144855585668577854F5F5F4F5E
:100790006F4F7F4F4C0D5D1D6E1D7F1DCE0102966C
:1007A00020E030E00E947C0C892B09F05BC069815D
:1007B0007A81C40181709070892B39F0A4E076951C
:1007C0006795AA95E1F79B0123C09B0140E050E0AB
:1007D0003F70407050704AC077276B2D5A2D492DBD
:1007E000F30184859585A685B785480F591F6A1F33
:1007F0007B1F94013070220F331FCE01019602E05F
:1008000010E00E947C0C892B69F589819A819C01FA
:1008100040E050E02BC0B501A40127E07695679534
:10082000579547952A95D1F7F30184859585A68537
:10083000B785480F591F6A1F7B1F94012F773070AF
:10084000220F331F220F331FCE01019604E010E068
:100850000E947C0C892B31F429813A814B815C8187
:100860005F7004C021E030E040E050E0B901CA010F
:100870002496EEE00C94AC0FA0E0B0E0E2E4F4E0EB
:100880000C94940F5C01C0911B01D0911C01FC01E0
:10089000C080D1800894C11CD11CC114D10409F4BA
:1008A00091C024853585468557852115310541053B
:1008B000510509F487C0C6018F709070892B09F02B
:1008C0007BC02F5F3F4F4F4F5F4F24873587468751
:1008D00057874085518562857385411551056105AE
:1008E000710539F48C819D81C816D90608F464C05D
:1008F00069C0898190E001979601E4E036952795DB
:10090000EA95E1F782239323892B09F055C0CB01A7
:10091000BA010E946B039B01AC0162307105810535
:10092000910518F421E030E04FC088859985AA85AB
:10093000BB85281739074A075B0708F043C0F50154
:100940002087318742875387C0911B01D0911C01BA
:100950008EEFE82E8FEFF82E8FEF082F8FEF182FE6
:10096000E20EF31E041F151F88859985AA85BB8595
:100970000297A109B109E816F9060A071B0728F032
:1009800020E030E040E050E012C0298130E040E05B
:1009900050E0C801B7010E941C0F9B01AC018C897B
:1009A0009D89AE89BF89280F391F4A1F5B1FF5013A
:1009B0002487358746875787F501D182C08220E09A
:1009C00030E002C023E030E0C901CDB7DEB7EAE095
:1009D0000C94B00FA0E0B0E0E0EFF4E00C948C0FCA
:1009E000E82FC0911B01D0911C01209719F426E03B
:1009F00030E010C18A8180FD03C025E030E00AC1EB
:100A0000AC8CBD8CCE8CDF8C4E2F592FCB01DA01F4
:100A10003C014D01A614B704C804D90410F43501F3
:100A20004601288D398D4A8D5B8D188E198E1A8E50
:100A30001B8E611471048104910409F4E9C0898159
:100A4000A82EBB24CC24DD2499E0AA0CBB1CCC1C12
:100A5000DD1C9A95D1F72115310541055105B1F1FC
:100A600019012A0108942108310841085108C401DC
:100A7000B3016150704080409040A60195010E94F2
:100A80004F0F79018A01C201B101A60195010E94AF
:100A90004F0FE216F30604071507C0F088279927C1
:100AA000DC018A199B09AC09BD0982219321A4218B
:100AB000B521888F998FAA8FBB8F681A790A8A0A05
:100AC0009B0A2CA13DA14EA15FA133C028A139A151
:100AD0004AA15BA12CA33DA34EA35FA32AC0CA01D8
:100AE000B9010E946B039B01AC0162307105810565
:100AF000910508F489C088859985AA85BB85281742
:100B000039074A075B0708F07FC02CA33DA34EA31B
:100B10005FA3888D998DAA8DBB8D8A0D9B1DAC1D01
:100B2000BD1D888F998FAA8FBB8F6A187B088C0890
:100B30009D08A614B704C804D90488F2888D998D3D
:100B4000AA8DBB8D860D971DA81DB91D888F998F05
:100B5000AA8FBB8F00911B0110911C018EEFA82E54
:100B60008FEFB82E8FEFC82E8FEFD82EA20EB31EA8
:100B7000C41ED51EF80180859185A285B385029794
:100B8000A109B109A816B906CA06DB06E8F5218154
:100B900030E040E050E0C601B5010E941C0F9B010F
:100BA000AC01F80184899589A689B789280F391F76
:100BB0004A1F5B1F211531054105510529F1D4015B
:100BC000C30119E0B695A795979587951A95D1F722
:100BD000982F8B83FFEFEF2EF1E0FF2E012D112DCB
:100BE0006E207F208022912261147104810491047F
:100BF00079F0280F311D411D511D28A739A74AA79B
:100C00005BA79F5F9B8304C01A8221E030E002C093
:100C100020E030E0C901CDB7DEB7E2E10C94A80FC7
:100C2000ACE2B0E0E6E1F6E00C94940F7C015B01ED
:100C3000E0911B01F0911C01309719F426E030E09F
:100C4000D0C0CE010D9697838683CE010196D70141
:100C500013969C938E9312976115710529F4C70121
:100C60000E94EF029C01BDC0C680D78023E030E027
:100C700028C0F701208131812F703070E5E0220F0C
:100C8000331FEA95E1F7C60100E210E00E947C0CF8
:100C9000892B19F021E030E021C0D6019C919923E5
:100CA00009F4A4C01B968C91953E29F09E3219F050
:100CB0008F7383FF21C0C7010E943C049C010097F1
:100CC00069F4F70144855585668577854115510599
:100CD0006105710571F62115310571F0D7011C967A
:100CE0001D921D921D921C921F972330310521F0F9
:100CF0002115310509F075C09501275F3F4FF701B8
:100D000084859585A685B7850097A105B10509F469
:100D100056C0E0911B01F0911C014681578180E093
:100D200090E0FA01E80FF91FE081E03251F0E53080
:100D300009F4E5EED901ED939D0101968830910506
:100D400081F7FA018085803211F4F90110C0F901B0
:100D50008EE28193DA012C5F3F4F18968C911897A1
:100D6000803229F081931196E217F307B1F7DA0187
:100D70001B968C91D50118968C93DA015C960D9197
:100D80001D912D913C915F97D5010D931D932D934E
:100D90003C931397DA0158968D919C915997D50100
:100DA00015969C938E931497DA0156968D919C918B
:100DB0005797D50117969C938E9316979F01F9012B
:100DC0001082C7010E943C049C018330910549F4C4
:100DD000D7011C961D921D921D921C921F9720E018
:100DE00030E0C901AC96EAE00C94B00F23E030E0AB
:100DF00075CFA0E0B0E0EFEFF6E00C948F0F6C0140
:100E00005B0103C00894A11CB11CD5018C918032F8
:100E1000C9F38F3219F40894A11CB11CF601148295
:100E2000158216821782D5018C91813268F4C60131
:100E30000E94EF02EC01E0911B01F0911C01068081
:100E4000F781E02D1082B1C0A0E25A2E662463948F
:100E5000F601A281B381FD01CD010B9601C0519233
:100E6000E817F907E1F720E0772438E002C028E02E
:100E70003BE0F501E70DF11D908173949132B0F0E4
:100E80009F32A1F09E3211F0231728F0383071F410
:100E90009E3269F30BC0892F81568A3108F4905233
:100EA000FD01E20FF11D90832F5FE3CF1B961C9293
:100EB0001B97913210F41B966C92C6010E94EF02B0
:100EC000EC01009709F042C0E0911B01F0911C0178
:100ED000E680F780FBE08F2E912C8E0C9F1CD601B4
:100EE0001C964D915D916D917C911F972D913C9138
:100EF0002F703070E5E0220F331FEA95E1F7C7014C
:100F000000E210E00E947C0C892B19F081E090E057
:100F10001CC0F7018081882309F44DC0838583FDBF
:100F20000FC0F601A281B381F701E815F90509F4B4
:100F300045C090818C91981719F431961196F5CF90
:100F4000C6010E943C04009751F2EC01C330D10568
:100F500061F5D6011296ED91FC9113978385882354
:100F600011F123C0E0911B01F0911C010680F78173
:100F7000E02D838584FF17C0A70CB11C8489958957
:100F8000A0E0B0E0DC0199278827228D338D40E076
:100F900050E0822B932BA42BB52BF60184839583F1
:100FA000A683B78355CFC4E0D0E0CE01CDB7DEB77E
:100FB000EFE00C94AB0FC3E0D0E0C8CFD60112969F
:100FC000ED91FC9113978385882361F2EECFACE21B
:100FD000B0E0EDEEF7E00C94980F8C01E0911B016E
:100FE000F0911C01309719F426E030E036C03DE066
:100FF000E32EF12CEC0EFD1EF782E682CE01019667
:10100000F80193838283C8010E94F9069C0100972E
:10101000F9F48D858823C1F0888D84FF1CC0F70109
:1010200084899589A0E0B0E0DC0199278827228D8A
:10103000338D40E050E0822B932BA42BB52BF8018D
:1010400084839583A683B783C8010E94EF029C0125
:101050002330310511F424E030E0C901AC96E6E01C
:101060000C94B40FACE3B0E0E8E3F8E00C94980F14
:10107000BC0100911B0110911C010115110519F40F
:1010800066E070E042C0F80112825DE1E52EF12CCD
:10109000EC0EFD1EF782E682CE010196988B8F87BB
:1010A000CE010D960E94F906BC01009771F58D8D59
:1010B000882349F188A584FD26C0F7018489958994
:1010C000A0E0B0E0DC0199278827228D338D40E035
:1010D00050E0822B932BA42BB52BF80180A391A376
:1010E000A2A3B3A3F701848D958DA68DB78DF801CA
:1010F000848F958FA68FB78F108E118E128E138EC0
:1011000081E0828302C063E070E0CB01EC96E6E010
:101110000C94B40FA0E0B0E0E0E9F8E00C948E0F7E
:101120003C016B014A01C0911B01D0911C01FA01E5
:1011300011821082209719F426E030E0DDC08A8108
:1011400080FD03C025E030E0D7C02C8D3D8D4E8D55
:101150005F8D888D998DAA8DBB8D281B390B4A0B0D
:101160005B0BCB01A0E0B0E0281739074A075B070B
:1011700008F469015301412CF2E05F2EB3C0E88C02
:10118000F98C0A8D1B8DD801C7019170A070B070C9
:101190000097A105B10509F06BC0C801B701E9E0EE
:1011A0009695879577956795EA95D1F7298130E0EF
:1011B00040E050E00E944F0F6115710581059105D7
:1011C000D9F4E114F1040105110529F468A179A10C
:1011D0008AA19BA106C06CA17DA18EA19FA10E94A6
:1011E0006B03623071058105910508F482C06CA320
:1011F0007DA38EA39FA31B8200911B0110911C0154
:101200002CA13DA14EA15FA1225030404040504052
:10121000F80180859185A285B3850297A109B1095E
:10122000281739074A075B0708F063C0618170E03F
:1012300080E090E00E941C0F9B01AC01F8018489C2
:101240009589A689B789280F391F4A1F5B1F211569
:1012500031054105510509F44CC08B81280F311D22
:10126000411D511D28A739A74AA75BA78F5F8B8314
:10127000088D198D2A8D3B8DC8019170A201481BE4
:10128000590B76014C155D0508F47A01611471045F
:1012900019F480E090E001C0C50148A559A56AA5F0
:1012A0007BA59801317087010E947C0C892B09F580
:1012B000C701A0E0B0E0288D398D4A8D5B8D280FE5
:1012C000391F4A1F5B1F288F398F4A8F5B8FAE0CE7
:1012D000BF1CCE18DF08F401808191818E0D9F1D07
:1012E00091838083C114D10409F049CF20E030E01C
:1012F00003C01A8221E030E0C901CDB7DEB7E0E1DA
:101300000C94AA0FA0E0B0E0E8E8F9E00C94940F88
:10131000B82EA92E6A017B012EEF31E002E010E029
:101320000E947C0C892B11F023E033C0CB2DDA2DE9
:101330008881998185559A4A11F022E02AC08B2D27
:101340009A2DB701A60126E330E002E010E00E94EA
:101350007C0C892B39F4888199818654914411F44D
:1013600020E017C08B2D9A2DB701A60122E530E0B1
:1013700002E010E00E947C0C892B11F021E009C0F2
:1013800020E0888199818654914409F421E081E02C
:101390002827822FCDB7DEB7EAE00C94B00FA0E08B
:1013A000B0E0E5EDF9E00C948E0FFC015B013A0131
:1013B000C0911B01D0911C01DA011D921C92209753
:1013C00019F426E030E00BC18A8190E080FD03C073
:1013D00025E030E004C1807490706115710589F4D6
:1013E000892B59F080E090E040E050E060E070E050
:1013F0000E94E30C892B09F0EFC08A818F7B8A83DE
:10140000E8C0892B51F4888D998DAA8DBB8D807091
:101410009E7F888F998FAA8FBB8F2C8D3D8D4E8D8F
:101420005F8D888D998DAA8DBB8D281B390B4A0B3A
:101430005B0BC501A0E0B0E0281739074A075B073E
:1014400008F459014F01412CB2E05B2EBEC0E88C7C
:10145000F98C0A8D1B8DC7019170892B09F077C01B
:10146000C801B701A9E09695879577956795AA95E4
:10147000D1F7298130E040E050E00E944F0F611524
:10148000710581059105D9F4E114F10401051105F7
:1014900029F468A179A18AA19BA106C06CA17DA1B4
:1014A0008EA19FA10E946B03623071058105910599
:1014B00008F492C06CA37DA38EA39FA31B8200910E
:1014C0001B0110911C012CA13DA14EA15FA1225036
:1014D000304040405040F80180859185A285B38519
:1014E0000297A109B109281739074A075B0708F0D5
:1014F00073C0618170E080E090E00E941C0F9B014E
:10150000AC01F80184899589A689B789280F391F0C
:101510004A1F5B1F211531054105510509F45CC0C7
:101520008B81BA01A901480F511D611D711D48A78A
:1015300059A76AA77BA78F5F8B8380E090E00E940A
:10154000E30C892B09F048C08A8180648A83888DE6
:10155000998D91709201281B390B65012A153B0565
:1015600008F46901760100E010E0C401B801A701A8
:101570000E94E30C892B81F5888D998DAA8DBB8DF6
:101580008E0D9F1DA01FB11F9C01888F998FAA8F60
:10159000BB8FD3018D919C9111978C0D9D1D8D93C7
:1015A0009C933170232B69F480E090E040E050E0A0
:1015B00060E070E00E94E30C892B71F48A818F7BDC
:1015C0008A838C0C9D1CAC18BD08A114B10409F0D1
:1015D0003ECF20E030E003C01A8221E030E0C901B4
:1015E000CDB7DEB7E0E10C94AA0FA4E2B0E0EBEFD8
:1015F000FAE00C94900F5C0110921C0110921B01F8
:10160000009709F4EEC00E94660D80FF03C022E03F
:1016100030E0EFC04E010894811C911CC40140E0F1
:1016200050E060E070E00E948209813021F0CC241B
:10163000DD2476011BC0C40140E050E060E070E0B2
:101640002EEB31E000E110E00E947C0C892B09F0C8
:10165000CBC08D81882309F4CAC0C984DA84EB84A5
:10166000FC84C401B701A6010E948209833009F4F9
:10167000BBC0882309F0BBC0CE010196B701A6010B
:101680002DE030E004E210E00E947C0C892B09F090
:10169000ABC08A859B85BC0180E090E06115710537
:1016A0008105910521F4688D798D8A8D9B8D2C8122
:1016B00030E040E050E00E941C0F3B014C018A8169
:1016C0009B81A0E0B0E0C80ED91EEA1EFB1EF5010A
:1016D000C486D586E686F786898181832D813E8101
:1016E000358324838F8198857C0100E010E0E1142C
:1016F000F1040105110521F4EC88FD880E891F898C
:101700008A819B81A0E0B0E0E81AF90A0A0B1B0B62
:10171000E618F7080809190944E0369527954A950F
:10172000E1F7C901A0E0B0E0E81AF90A0A0B1B0BC7
:10173000F501218130E040E050E0C801B7010E948E
:101740004F0F2E5F3F4F4F4F5F4FF501208731877F
:1017500042875387273FFFE03F07F0E04F07F0E065
:101760005F0710F481E008C0275F3F4F40405040C2
:1017700010F083E001C082E0F5018083833029F41A
:1017800088A199A1AAA1BBA109C0F501848595856D
:10179000A685B785860D971DA81DB91D808B918BD9
:1017A000A28BB38BF5018481958124E09695879572
:1017B0002A95E1F7A0E0B0E0248535854685578578
:1017C000820F931FA41FB51F860D971DA81DB91D5D
:1017D000848B958BA68BB78B1282B0921C01A09242
:1017E0001B0120E030E005C021E030E002C027E02E
:1017F00030E0C901A496EEE00C94AC0F5E9A84EC44
:1018000099E000000197E9F7259A279A569A80E512
:101810008CBD8DB581608DBD08958FEF8EBD0DB4EB
:1018200007FEFDCF8EB508958EBD0DB407FEFDCF2A
:101830000895DF92EF92FF920F931F93D82E7A01B3
:101840008B0187FF0CC087E740E050E060E070E06C
:101850000E94190C823008F049C08FE7D8225E9AA6
:101860008FEF8EBD0DB407FEFDCF8EB55E988FEF66
:101870008EBD0DB407FEFDCF8EB5DEBC0DB407FEE8
:10188000FDCF812F9927AA27BB278EBD0DB407FE58
:10189000FDCFC801AA27BB278EBD0DB407FEFDCF23
:1018A000BB27A12F902F8F2D8EBD0DB407FEFDCF2E
:1018B000EEBC0DB407FEFDCF80E4D81611F485E927
:1018C00006C088E4D81611F487E801C081E08EBD17
:1018D0000DB407FEFDCF9AE02FEF2EBD0DB407FE2D
:1018E000FDCF8EB587FF02C09150B9F71F910F91C0
:1018F000FF90EF90DF900895EF92FF920F931F9368
:10190000CF93DF937C01E90180911F0183FD07C024
:1019100039E0440F551F661F771F3A95D1F781E5CF
:101920000E94190C882309F03FC080E395E73FEF40
:101930003EBD0DB407FEFDCF2EB52F3F19F4019724
:10194000B9F732C02E3F81F5222733272C1B3D0BE0
:101950002E5F3D4F201B310B209741F08FEF8EBD46
:101960000DB407FEFDCF9EB52197C9F7E114F10430
:1019700079F09FEF9EBD0DB407FEFDCF8EB5F70148
:1019800080830150104021F00894E11CF11CF2CF3B
:101990008FEF8EBD0DB407FEFDCF9EB521503040B8
:1019A000C1F720E030E002C021E030E05E9A8FEF26
:1019B0008EBD0DB407FEFDCF8EB5C901CDB7DEB724
:1019C000E6E00C94B40FFC01009709F120911D0191
:1019D00030911E010AC080818EBD0DB407FEFDCF7F
:1019E000319641505040215030404115510529F465
:1019F00030931E0120931D0107C02115310559F7B1
:101A000010921E0110921D0120E030E05DC04115D2
:101A100051056105710521F180911F0183FD07C00A
:101A2000E9E0440F551F661F771FEA95D1F788E557
:101A30000E94190C882319F021E030E045C08FEF97
:101A40008EBD0DB407FEFDCF8EEF8EBD0DB407FE2B
:101A5000FDCF80E092E090931E0180931D01D4CFD2
:101A600080911D0190911E01029605C01EBC0DB40F
:101A700007FEFDCF01970097C9F78FEF8EBD0DB41C
:101A800007FEFDCF8EB58F718530A9F448EE5DEF6E
:101A90009FEF02C0415050409EBD0DB407FEFDCFE8
:101AA0008EB58F3F21F041155105A1F704C020E00C
:101AB00030E0452B11F421E030E05E9A8FEF8EBDCF
:101AC0000DB407FEFDCF8EB5C9010895A4E0B0E0C6
:101AD000ECE6FDE00C94960F0E94FE0B2C9908C0DA
:101AE00080E090E040E050E060E070E00E94E30CB5
:101AF00084E69FEF9EBD0DB407FEFDCF2EB581504D
:101B0000C9F780E440E050E060E070E00E94190C0A
:101B1000813009F06EC088E44AEA51E060E070E08C
:101B20000E94190C813009F042C06E010894C11C5A
:101B3000D11C76019FEF9E012B5F3F4F9EBD0DB4E0
:101B400007FEFDCF8EB5F70181937F01E217F30702
:101B5000A9F78B81813009F04CC08C818A3A09F059
:101B600048C000EE1EE204C00150104009F441C01C
:101B700089EE40E050E060E070E40E94190C882398
:101B800099F749C09FEF9EBD0DB407FEFDCF8EB5FE
:101B9000F60181936F01EE15FF05A9F7898186FD96
:101BA00003C094E0F92E26C08CE0F82E23C089EE05
:101BB00040E050E060E070E00E94190C823028F0B4
:101BC000B1E4EB2EFF24F39404C0A9EEEA2EF2E078
:101BD000FF2E08EA11E603C00150104051F08E2D8F
:101BE00040E050E060E070E00E94190C8823A1F70B
:101BF0001DC0FF24F0921F015E9A8FEF8EBD0DB4C1
:101C000007FEFDCF8EB580E0FF2009F481E0249629
:101C1000E8E00C94B20F8AE740E050E060E070E04A
:101C20000E94190C882309F4ADCFE3CF80E540E092
:101C300052E060E070E00E94190C8823D1F6DACF00
:101C4000429A00000000000000C048B190E09C01F2
:101C5000207F3070359527954778422B48B94298B8
:101C600000000000000000C0429A000000000000D8
:101C700000C028B18F70907033E0880F991F3A959B
:101C8000E1F72778282B28B94298000000000000CF
:101C900000C008953E98469842984098419A429ACA
:101CA00000000000000000C086B14298429A000087
:101CB0000000000000C0429800000000000000C0CA
:101CC00086FDEDCF3E9A08951F93182F0E944A0E6D
:101CD000409A4198812F0E94200E1F9108951F93D2
:101CE000182F0E944A0E40984198812F0E94200E82
:101CF0001F91089587B1886787B987B1876087B9D1
:101D00000E944A0E4098419888B1877988B9449AD0
:101D1000429A00000000000000C0429888E20E9441
:101D20006F0E8CE00E946F0E86E00E946F0E81E0C5
:101D30000E946F0E089508950F931F9364E670E05C
:101D40000E943B0F182F092F6AE070E00E943B0FA2
:101D5000862F805D0E94640E812F902F6AE070E0D4
:101D60000E943B0F805D0E94640E1F910F910895A9
:101D7000CF93DF93EC0164E0969587956A95E1F740
:101D80008A3010F0895C01C0805D0E94640E9E0163
:101D90002F70822F2A3010F0895C01C0805D0E9474
:101DA000640EDF91CF9108950F931F93CF93DF932C
:101DB0008C01C0E0D0E002C00E94640EF801EC0F7C
:101DC000FD1F8081882321F02196C131D105A1F723
:101DD000DF91CF911F910F9108950F931F93CF9390
:101DE000DF93EC01062F10E003C00E94640E1F5F1A
:101DF000FE01E10FF11D8081882311F01017A8F377
:101E0000DF91CF911F910F910895EF92FF920F9361
:101E10001F938C017B0181E00E946F0EC8010E941C
:101E2000D40E80EC0E946F0EC7010E94D40E1F9149
:101E30000F91FF90EF900895629FD001739FF00182
:101E4000829FE00DF11D649FE00DF11D929FF00D4A
:101E5000839FF00D749FF00D659FF00D9927729F81
:101E6000B00DE11DF91F639FB00DE11DF91FBD010C
:101E7000CF0111240895AA1BBB1B51E107C0AA1F63
:101E8000BB1FA617B70710F0A61BB70B881F991F1B
:101E90005A95A9F780959095BC01CD010895A1E2CE
:101EA0001A2EAA1BBB1BFD010DC0AA1FBB1FEE1FD4
:101EB000FF1FA217B307E407F50720F0A21BB30B1F
:101EC000E40BF50B661F771F881F991F1A9469F79B
:101ED00060957095809590959B01AC01BD01CF01F7
:101EE000089597FB092E05260ED057FD04D0D7DFA5
:101EF0000AD0001C38F450954095309521953F4FFD
:101F00004F4F5F4F0895F6F79095809570956195C6
:101F10007F4F8F4F9F4F08952F923F924F925F9226
:101F20006F927F928F929F92AF92BF92CF92DF92E9
:101F3000EF92FF920F931F93CF93DF93CDB7DEB74E
:101F4000CA1BDB0B0FB6F894DEBF0FBECDBF0994E2
:101F50002A88398848885F846E847D848C849B8439
:101F6000AA84B984C884DF80EE80FD800C811B8147
:101F7000AA81B981CE0FD11D0FB6F894DEBF0FBE76
:101F8000CDBFED010895FB01DC010D900020E9F7C4
:101F9000119701900D920020E1F70895FB015191F6
:101FA0005523A9F0BF01DC014D9145174111E1F71F
:101FB00059F4CD010190002049F04D914015411197
:101FC000C9F3FB014111EFCF81E090E00197089543
:101FD000AEE0B0E0EEEEFFE00C949A0F0D891E89A2
:101FE00086E08C831A8309838FEF9FE79E838D831E
:101FF0009E01275E3F4FCE0101966F89788DA90122
:102000000E940C102F813885020F131FF8011082D7
:102010002E96E4E00C94B60FABE0B0E0E2E1F0E124
:102020000C948C0F3C012B015A01FC011782168283
:10203000838181FD03C06FEF7FEFC6C19AE0892ED7
:102040001E010894211C311CF3012381F20123FDA0
:10205000859123FF81912F01882309F4B2C1853234
:1020600039F423FD859123FF81912F01853229F4D5
:1020700090E0B3010E94FF11E7CF982FFF24EE24D8
:102080009924FFE1FF15D0F09B3269F09C3228F4CF
:10209000903259F0933291F40EC09D3249F0903352
:1020A00069F441E024C052E0F52A84E0F82A28C00F
:1020B00098E0F92A25C0E0E1FE2A22C0F7FC29C0F9
:1020C000892F80538A3070F4F6FE05C0989C902CBE
:1020D0001124980E15C0E89CE02C1124E80EF0E2C3
:1020E000FF2A0EC09E3229F4F6FC6BC140E4F42AAC
:1020F00007C09C3619F450E8F52A02C0983649F416
:10210000F20123FD959123FF91912F01992309F06D
:10211000B8CF892F8554833018F08052833038F43B
:1021200044E050E0A40EB51E5FE359830FC0933620
:1021300031F0933779F0933509F056C020C0F5019E
:102140008081898342E050E0A40EB51E610101E068
:1021500010E012C0F501C080D180F6FC03C06FEF23
:102160007FEF02C0692D70E042E050E0A40EB51E82
:10217000C6010E94F4118C015FE7F52214C0F5013D
:10218000C080D180F6FC03C06FEF7FEF02C0692DE5
:1021900070E042E050E0A40EB51EC6010E94E911B5
:1021A0008C0150E8F52AF3FE07C01AC080E290E0E7
:1021B000B3010E94FF11EA948E2D90E008171907D1
:1021C000A8F30EC0F601F7FC8591F7FE81916F012F
:1021D00090E0B3010E94FF11E110EA940150104019
:1021E0000115110579F7EAC0943611F0993669F5B1
:1021F000F7FE08C0F501208131814281538184E0DE
:1022000090E00AC0F501808191819C01442737FD4F
:102210004095542F82E090E0A80EB91E9FE6F92267
:1022200057FF09C050954095309521953F4F4F4F2E
:102230005F4FE0E8FE2ACA01B901A1012AE030E0BF
:102240000E942B12D82ED21840C0953729F41F2D8A
:102250001F7E2AE030E01DC01F2D197F9F3661F0E0
:10226000903720F4983509F0ACC00FC0903739F0A2
:10227000983709F0A6C004C028E030E00AC0106119
:1022800014FD146020E130E004C014FD166020E16C
:1022900032E017FF08C0F50160817181828193816E
:1022A00044E050E008C0F50180819181BC0180E0EC
:1022B00090E042E050E0A40EB51EA1010E942B1256
:1022C000D82ED2188FE7F82EF122F6FE0BC05EEF63
:1022D000F522D91438F4F4FE07C0F2FC05C08FEEE5
:1022E000F82202C01D2D01C0192DF4FE0DC0FE0103
:1022F000ED0DF11D8081803319F499EEF92208C0AB
:102300001F5FF2FE05C003C08F2D867809F01F5FA6
:102310000F2DF3FC14C0F0FE0FC01E1510F09D2C05
:102320000BC09D2C9E0C911A1E2D06C080E290E0E1
:10233000B3010E94FF111F5F1E15C0F304C01E15DC
:1023400010F4E11A01C0EE2404FF0FC080E390E016
:10235000B3010E94FF1102FF1DC001FD03C088E709
:1023600090E00EC088E590E00BC0802F867891F059
:1023700001FF02C08BE201C080E2F7FC8DE290E039
:10238000B3010E94FF1106C080E390E0B3010E94F8
:10239000FF119A94D914C0F3DA94F101ED0DF11DF7
:1023A000808190E0B3010E94FF11DD20A9F706C0F3
:1023B00080E290E0B3010E94FF11EA94EE20C1F7A1
:1023C00043CEF30166817781CB012B96E2E10C9439
:1023D000A80FFC010590615070400110D8F780955E
:1023E00090958E0F9F1F0895FC01615070400190E1
:1023F0000110D8F7809590958E0F9F1F08950F9329
:102400001F93CF93DF938C01EB018B8181FF1BC066
:1024100082FF0DC02E813F818C819D812817390755
:1024200064F4E881F9810193F983E88306C0E885C3
:10243000F985802F0995892B31F48E819F81019632
:102440009F838E8302C00FEF1FEFC801DF91CF91F2
:102450001F910F910895FA01AA27283051F12031D8
:1024600081F1E8946F936E7F6E5F7F4F8F4F9F4F28
:10247000AF4FB1E03ED0B4E03CD0670F781F891F6A
:102480009A1FA11D680F791F8A1F911DA11D6A0F38
:10249000711D811D911DA11D20D009F468943F91EB
:1024A0002AE0269F11243019305D3193DEF6CF01EA
:1024B0000895462F4770405D4193B3E00FD0C9F7B0
:1024C000F6CF462F4F70405D4A3318F0495D31FD1D
:1024D0004052419302D0A9F7EACFB4E0A695979570
:1024E000879577956795BA95C9F700976105710546
:1024F00008959B01AC010A2E069457954795379590
:102500002795BA95C9F7620F731F841F951FA01DE9
:062510000895F894FFCFCE
:102516007761760057415600253032643A253032CD
:08252600643A25303264000123
:00000001FF
