:100000000C943E000C9448000C9448000C9448005A
:100010000C9448000C9448000C9448000C94480040
:100020000C9448000C9448000C9448000C94480030
:100030000C9448000C9448000C9448000C94480020
:100040000C9448000C9448000C9448000C94480010
:100050000C9448000C9448000C9448000C94480000
:100060000C9448000C9448000C9448000C944800F0
:100070000C9448000C9448000C94480011241FBEB6
:10008000CFEFD8E0DEBFCDBF0E944A000C945F00E6
:100090000C9400008FEF8AB920E931E05F9A84EF79
:1000A00091E0F9013197F1F70197D9F75F9884EF63
:1000B00091E0F9013197F1F70197D9F7EFCFF89473
:0200C000FFCF70
:00000001FF
