:100000000C943E000C945B000C945B000C945B0021
:100010000C945B000C945B000C945B000C945B00F4
:100020000C945B000C94A3030C945B000C945B0099
:100030000C945B000C945B000C945B000C945B00D4
:100040000C945D000C945B000C945B000C945B00C2
:100050000C945B000C945B000C945B000C945B00B4
:100060000C945B000C945B000C945B000C945B00A4
:100070000C945B000C945B000C945B0011241FBE7D
:10008000CFEFD8E0DEBFCDBF11E0A0E0B1E0E2E508
:10009000F7E202C005900D92A036B107D9F713E040
:1000A000A0E6B1E001C01D92A83DB107E1F70E94B2
:1000B000E8000C94A7130C9400001F920F920FB647
:1000C0000F9211242F933F934F938F939F93EF930E
:1000D000FF9340916201413009F045C080915F017A
:1000E0008130E9F42091600130916101F901E85219
:1000F000FD4F808190E090938900809388002F5F6E
:100100003F4F309361012093600180916001909195
:1001100061018050914039F510925F0120C08091BB
:100120005F01882301F52091600130916101F9019F
:10013000EE57FE4F808190E0909389008093880075
:100140002F5F3F4F309361012093600180916001E8
:10015000909161018050914031F440935F01109281
:10016000610110926001FF91EF919F918F914F91EA
:100170003F912F910F900FBE0F901F90189582E026
:1001800084BD85BD80936E00089581EC80938000CE
:1001900089E080938100089582E08093B00095E02B
:1001A0009093B100809370008DE78093B300089521
:1001B000E0E7F0E010828093AB026093AA024093E4
:1001C0009402309383022093820282E08083089518
:1001D0000E94A10F0E94A10F80E091E00E94FE0FFB
:1001E00086E091E0FBCFEF92FF920F931F930E9466
:1001F0006B09BC01009709F02CC182E084BD85BD6C
:1002000080936E0081EC8093800089E08093810070
:1002100088ED92E06CE070E040E851E00E94C30994
:10022000892B31F081E0E82EF12C012D112DB3C086
:1002300080918001909181010C9709F014C1809107
:10024000E0029091E102A091E202B091E3028755B1
:100250009144A645B54409F006C188ED92E068E0F6
:1002600070E040E851E00E94C309809180019091C4
:100270008101089709F0F7C0E090DC02F090DD0200
:100280000091DE021091DF028091D8029091D90294
:10029000A091DA02B091DB028C3429E4920723E5C5
:1002A000A20724E5B20709F45EC08D3429E4920761
:1002B00023E5A20724E5B20738F486569D46A447F5
:1002C000B04209F0D0C010C0843621E6920724E77E
:1002D000A20721E6B20709F457C086569146A34605
:1002E000B44709F0C0C03FC0D801C7014097A10979
:1002F000B10985359105A105B10508F0B4C088EDB7
:1003000092E0B70140E851E00E94C309809180016A
:1003100090918101A0E0B0E08E159F05A007B10784
:1003200009F0A1C08091D802813009F09CC0809171
:10033000DA028150823008F096C08091E60288305F
:1003400019F0803109F08FC02091DC023091DD027C
:1003500040E050E060E874E88EE190E00E948F1089
:10036000215027BD7ACF8091C4029091C502A091FF
:10037000C602B091C702E80EF91E0A1F1B1FC80172
:10038000B7010E94230669CF8FEFE816F10401053B
:10039000110509F010F4B70160C01092A902109283
:1003A0006901109268018091C4029091C502917018
:1003B00060E072E0681B790B88ED92E040E851E064
:1003C0000E94C30988ED92E060E071E040E851E0EE
:1003D0000E94C309BC01009739F088E088B9809178
:1003E000A9028823E1F739C081E08093620110916E
:1003F0005F0180915F01813019F482E891E002C0D1
:1004000088ED92E060E071E040E851E00E94C309AD
:10041000BC01009719F088E088B919C080915F018C
:100420001817E1F319990CC01092620188E893E162
:1004300020E931E0F9013197F1F70197D9F707C0C9
:1004400080918001909181018050914081F21092C1
:1004500062018091A9028823E1F7CB011F910F91DE
:10046000FF90EF900895EE24FF24870194CF18C0E9
:10047000809172018271A1F483E791E06BE071E0F9
:100480000E94EC10009761F083E791E00E94FE0F5C
:100490008FE091E063E771E00E94E1100E94F300B9
:1004A00084E892E06AE671E00E944907892B21F412
:1004B000809173018823E1F60895A4E1B0E0E3E6BA
:1004C000F2E00C94B61086E191E00E94F300809176
:1004D000AB028E010F5F1F4F3FE1E32E31E0F32EA1
:1004E000853180F400D000D000D0EDB7FEB7319652
:1004F000ADB7BEB712961C930E931197F382E282AA
:10050000848338C000D000D000D0EDB7FEB731965C
:10051000ADB7BEB712961C930E931197F382E28289
:10052000282F30E06AE00E944D10291B31093583E5
:1005300024830E9406118DB79EB706960FB6F894D5
:100540009EBF0FBE8DBFC8010E94F30000D000D037
:1005500000D0EDB7FEB73196ADB7BEB712961C937B
:100560000E931197F382E2828091AB026AE00E94BF
:100570004D10948315820E9406118DB79EB7069682
:100580000FB6F8949EBF0FBE8DBFC8010E94F30046
:1005900086E291E00E94F3008091AA028E010F5F33
:1005A0001F4F2FE1E22E21E0F22E853180F400D0A2
:1005B00000D000D0EDB7FEB73196ADB7BEB71296FA
:1005C0001C930E931197F382E282848338C000D08B
:1005D00000D000D0EDB7FEB73196ADB7BEB71296DA
:1005E0001C930E931197F382E282282F30E06AE089
:1005F0000E944D10291B3109358324830E94061166
:100600008DB79EB706960FB6F8949EBF0FBE8DBFEE
:10061000C8010E94F30000D000D000D0EDB7FEB7B3
:100620003196ADB7BEB712961C930E931197F38215
:10063000E2828091AA026AE00E944D1094831582A2
:100640000E9406118DB79EB706960FB6F8949EBF0E
:100650000FBE8DBFC8010E94F30080E391E00E94AD
:10066000F3008CE391E00E94F300809194028E01EC
:100670000F5F1F4F9FE1E92E91E0F92E853180F445
:1006800000D000D000D0EDB7FEB73196ADB7BEB701
:1006900012961C930E931197F382E282848338C0E2
:1006A00000D000D000D0EDB7FEB73196ADB7BEB7E1
:1006B00012961C930E931197F382E282282F30E05A
:1006C0006AE00E944D10291B3109358324830E9462
:1006D00006118DB79EB706960FB6F8949EBF0FBE53
:1006E0008DBFC8010E94F30000D000D000D0EDB74C
:1006F000FEB73196ADB7BEB712961C930E93119705
:10070000F382E282809194026AE00E944D10948309
:1007100015820E9406118DB79EB706960FB6F89403
:100720009EBF0FBE8DBFC8010E94F30084E491E01C
:100730000E94F3006496E6E00C94D210189902C06F
:100740000E945D0208951F920F920FB60F9211241E
:100750000F931F932F933F934F935F936F937F93C9
:100760008F939F93AF93BF93EF93FF9380918202F8
:100770009091830201969093830280938202885E17
:10078000934009F052C0109283021092820280912D
:1007900094028F5F809394028C33A1F410929402A0
:1007A0008091AA028F5F8093AA028C3359F4109231
:1007B000AA028091AB028F5F8093AB02883111F463
:1007C0001092AB028DB79EB70A970FB6F8949EBFF2
:1007D0000FBE8DBFEDB7FEB7319605E912E0ADB79C
:1007E000BEB712961C930E93119780E591E0938308
:1007F00082838091AB02848315828091AA028683D2
:10080000178280919402808711860E9406118DB70D
:100810009EB70A960FB6F8949EBF0FBE8DBF80ECB0
:100820000E94980FC8010E94FE0FFF91EF91BF91A7
:10083000AF919F918F917F916F915F914F913F9178
:100840002F911F910F910F900FBE0F901F90189531
:10085000A0E0B0E0EEE2F4E00C94B4106C01C091C2
:100860006301D0916401FC011182108224813581E1
:1008700046815781213031054105510509F45CC09D
:1008800088859985AA85BB85281739074A075B079C
:1008900008F052C0211531054105510539F4888110
:1008A000833021F4288939894A895B89F6012087B8
:1008B000318742875387211531054105510581F163
:1008C0008EEFE82E8FEFF82E8FEF082F8FEF182F77
:1008D000E20EF31E041F151F88859985AA85BB8526
:1008E0000297A109B109E816F9060A071B0728F0C3
:1008F00020E030E040E050E017C0298130E040E0E7
:1009000050E0C801B7010E942E109B01AC018C89F8
:100910009D89AE89BF89280F391F4A1F5B1F04C0FC
:10092000288939894A895B89F60124873587468772
:10093000578720E030E002C021E030E0C901CDB7A8
:10094000DEB7E8E00C94D010A4E0B0E0EAEAF4E00E
:100950000C94AE104B015C016090630170906401D7
:1009600082E088169104A104B10408F4B4C0F30134
:1009700080859185A285B38588169906AA06BB064F
:1009800008F0A9C08081823009F45FC0833009F487
:100990007BC0813009F09FC0C40196958795880D72
:1009A000991D9C013170892F992786956C01EE2441
:1009B000FF24F3014485558566857785CE01019630
:1009C000F1E02F3F3F0749F0C40ED51EE61EF71E8B
:1009D000B701A60102E010E01EC04C0D5D1D6E1DAA
:1009E0007F1D2FEF31E001E010E00E94B50D892B53
:1009F00009F071C0F30144855585668577854F5FA1
:100A00005F4F6F4F7F4F4C0D5D1D6E1D7F1DCE01E3
:100A1000029620E030E00E94B50D892B09F05BC002
:100A200069817A81C40181709070892B39F0A4E0CA
:100A300076956795AA95E1F79B0123C09B0140E05D
:100A400050E03F70407050704AC077276B2D5A2D90
:100A5000492DF30184859585A685B785480F591FD3
:100A60006A1F7B1F94013070220F331FCE01019645
:100A700002E010E00E94B50D892B69F589819A8109
:100A80009C0140E050E02BC0B501A40127E0769521
:100A90006795579547952A95D1F7F30184859585F4
:100AA000A685B785480F591F6A1F7B1F94012F77B2
:100AB0003070220F331F220F331FCE01019604E046
:100AC00010E00E94B50D892B31F429813A814B81C8
:100AD0005C815F7004C021E030E040E050E0B9018B
:100AE000CA012496EEE00C94CA10A0E0B0E0EBE757
:100AF000F5E00C94B2105C01C0916301D0916401E7
:100B0000FC01C080D1800894C11CD11CC114D10447
:100B100009F491C024853585468557852115310511
:100B20004105510509F487C0C6018F709070892B6B
:100B300009F07BC02F5F3F4F4F4F5F4F24873587B2
:100B400046875787408551856285738541155105D4
:100B50006105710539F48C819D81C816D90608F4A8
:100B600064C069C0898190E001979601E4E0369500
:100B70002795EA95E1F782239323892B09F055C045
:100B8000CB01BA010E94A4049B01AC016230710543
:100B90008105910518F421E030E04FC088859985E2
:100BA000AA85BB85281739074A075B0708F043C0A9
:100BB000F5012087318742875387C0916301D09127
:100BC00064018EEFE82E8FEFF82E8FEF082F8FEF56
:100BD000182FE20EF31E041F151F88859985AA851C
:100BE000BB850297A109B109E816F9060A071B0798
:100BF00028F020E030E040E050E012C0298130E0F1
:100C000040E050E0C801B7010E942E109B01AC01EA
:100C10008C899D89AE89BF89280F391F4A1F5B1FA8
:100C2000F5012487358746875787F501D182C08231
:100C300020E030E002C023E030E0C901CDB7DEB7EC
:100C4000EAE00C94CE10A0E0B0E0E9E2F6E00C940B
:100C5000AA10E82FC0916301D0916401209719F484
:100C600026E030E010C18A8180FD03C025E030E03D
:100C70000AC1AC8CBD8CCE8CDF8C4E2F592FCB0192
:100C8000DA013C014D01A614B704C804D90410F4DC
:100C900035014601288D398D4A8D5B8D188E198E50
:100CA0001A8E1B8E611471048104910409F4E9C049
:100CB0008981A82EBB24CC24DD2499E0AA0CBB1C7E
:100CC000CC1CDD1C9A95D1F7211531054105510544
:100CD000B1F119012A01089421083108410851088D
:100CE000C401B3016150704080409040A60195015D
:100CF0000E946D1079018A01C201B101A60195011E
:100D00000E946D10E216F30604071507C0F088274D
:100D10009927DC018A199B09AC09BD09822193211D
:100D2000A421B521888F998FAA8FBB8F681A790A61
:100D30008A0A9B0A2CA13DA14EA15FA133C028A124
:100D400039A14AA15BA12CA33DA34EA35FA32AC056
:100D5000CA01B9010E94A4049B01AC016230710573
:100D60008105910508F489C088859985AA85BB8588
:100D7000281739074A075B0708F07FC02CA33DA35B
:100D80004EA35FA3888D998DAA8DBB8D8A0D9B1D67
:100D9000AC1DBD1D888F998FAA8FBB8F6A187B08E9
:100DA0008C089D08A614B704C804D90488F2888D5D
:100DB000998DAA8DBB8D860D971DA81DB91D888F95
:100DC000998FAA8FBB8F00916301109164018EEF00
:100DD000A82E8FEFB82E8FEFC82E8FEFD82EA20E31
:100DE000B31EC41ED51EF80180859185A285B385EA
:100DF0000297A109B109A816B906CA06DB06E8F5EB
:100E0000218130E040E050E0C601B5010E942E1083
:100E10009B01AC01F80184899589A689B789280FBF
:100E2000391F4A1F5B1F211531054105510529F165
:100E3000D401C30119E0B695A795979587951A95A2
:100E4000D1F7982F8B83FFEFEF2EF1E0FF2E012DCE
:100E5000112D6E207F208022912261147104810463
:100E6000910479F0280F311D411D511D28A739A784
:100E70004AA75BA79F5F9B8304C01A8221E030E0F2
:100E800002C020E030E0C901CDB7DEB7E2E10C944A
:100E9000C610ACE2B0E0EFE4F7E00C94B2107C01D5
:100EA0005B01E0916301F0916401309719F426E051
:100EB00030E0D0C0CE010D9697838683CE01019697
:100EC000D70113969C938E9312976115710529F49F
:100ED000C7010E9428049C01BDC0C680D78023E0C2
:100EE00030E028C0F701208131812F703070E5E0BB
:100EF000220F331FEA95E1F7C60100E210E00E94DD
:100F0000B50D892B19F021E030E021C0D6019C916C
:100F1000992309F4A4C01B968C91953E29F09E322A
:100F200019F08F7383FF21C0C7010E9475059C01D2
:100F3000009769F4F70144855585668577854115E5
:100F400051056105710571F62115310571F0D70163
:100F50001C961D921D921D921C921F9723303105E5
:100F600021F02115310509F075C09501275F3F4F2C
:100F7000F70184859585A685B7850097A105B105FC
:100F800009F456C0E0916301F091640146815781F4
:100F900080E090E0FA01E80FF91FE081E03251F0C3
:100FA000E53009F4E5EED901ED939D010196883015
:100FB000910581F7FA018085803211F4F90110C0A2
:100FC000F9018EE28193DA012C5F3F4F18968C91E4
:100FD0001897803229F081931196E217F307B1F741
:100FE000DA011B968C91D50118968C93DA015C96E8
:100FF0000D911D912D913C915F97D5010D931D93FE
:101000002D933C931397DA0158968D919C915997A3
:10101000D50115969C938E931497DA0156968D916F
:101020009C915797D50117969C938E9316979F0185
:10103000F9011082C7010E9475059C01833091055A
:1010400049F4D7011C961D921D921D921C921F9768
:1010500020E030E0C901AC96EAE00C94CE1023E029
:1010600030E075CFA0E0B0E0E8E3F8E00C94AD101C
:101070006C015B0103C00894A11CB11CD5018C91CB
:101080008032C9F38F3219F40894A11CB11CF60107
:101090001482158216821782D5018C91813268F4F0
:1010A000C6010E942804EC01E0916301F091640103
:1010B0000680F781E02D1082B1C0A0E25A2E66248E
:1010C0006394F601A281B381FD01CD010B9601C0AD
:1010D0005192E817F907E1F720E0772438E002C0E1
:1010E00028E03BE0F501E70DF11D9081739491320A
:1010F000B0F09F32A1F09E3211F0231728F0383063
:1011000071F49E3269F30BC0892F81568A3108F43D
:101110009052FD01E20FF11D90832F5FE3CF1B96EC
:101120001C921B97913210F41B966C92C6010E9480
:101130002804EC01009709F042C0E0916301F091AE
:101140006401E680F780FBE08F2E912C8E0C9F1CB3
:10115000D6011C964D915D916D917C911F972D91BB
:101160003C912F703070E5E0220F331FEA95E1F7D4
:10117000C70100E210E00E94B50D892B19F081E053
:1011800090E01CC0F7018081882309F44DC083855D
:1011900083FD0FC0F601A281B381F701E815F905BF
:1011A00009F445C090818C91981719F431961196E5
:1011B000F5CFC6010E947505009751F2EC01C330CE
:1011C000D10561F5D6011296ED91FC9113978385B7
:1011D000882311F123C0E0916301F091640106803E
:1011E000F781E02D838584FF17C0A70CB11C84898B
:1011F0009589A0E0B0E0DC0199278827228D338D06
:1012000040E050E0822B932BA42BB52BF601848376
:101210009583A683B78355CFC4E0D0E0CE01CDB788
:10122000DEB7EFE00C94C910C3E0D0E0C8CFD60120
:101230001296ED91FC9113978385882361F2EECF8E
:10124000ACE2B0E0E6E2F9E00C94B6108C01E0917B
:101250006301F0916401309719F426E030E036C064
:101260003DE0E32EF12CEC0EFD1EF782E682CE016E
:101270000196F80193838283C8010E9432089C0181
:101280000097F9F48D858823C1F0888D84FF1CC0F8
:10129000F70184899589A0E0B0E0DC0199278827CF
:1012A000228D338D40E050E0822B932BA42BB52B65
:1012B000F80184839583A683B783C8010E9428041C
:1012C0009C012330310511F424E030E0C901AC96D3
:1012D000E6E00C94D210ACE3B0E0E1E7F9E00C9466
:1012E000B610BC0100916301109164010115110554
:1012F00019F466E070E042C0F80112825DE1E52E6B
:10130000F12CEC0EFD1EF782E682CE010196988B41
:101310008F87CE010D960E943208BC01009771F5AF
:101320008D8D882349F188A584FD26C0F701848925
:101330009589A0E0B0E0DC0199278827228D338DC4
:1013400040E050E0822B932BA42BB52BF80180A317
:1013500091A3A2A3B3A3F701848D958DA68DB78D1C
:10136000F801848F958FA68FB78F108E118E128EF5
:10137000138E81E0828302C063E070E0CB01EC96C3
:10138000E6E00C94D210A0E0B0E0E9ECF9E00C94B7
:10139000AC103C016B014A01C0916301D091640122
:1013A000FA0111821082209719F426E030E0DDC0A6
:1013B0008A8180FD03C025E030E0D7C02C8D3D8DB3
:1013C0004E8D5F8D888D998DAA8DBB8D281B390B15
:1013D0004A0B5B0BCB01A0E0B0E0281739074A07A6
:1013E0005B0708F469015301412CF2E05F2EB3C0A2
:1013F000E88CF98C0A8D1B8DD801C7019170A07003
:10140000B0700097A105B10509F06BC0C801B70124
:10141000E9E09695879577956795EA95D1F72981C3
:1014200030E040E050E00E946D10611571058105CB
:101430009105D9F4E114F1040105110529F468A11D
:1014400079A18AA19BA106C06CA17DA18EA19FA1BB
:101450000E94A404623071058105910508F482C0E0
:101460006CA37DA38EA39FA31B82009163011091A7
:1014700064012CA13DA14EA15FA12250304040400B
:101480005040F80180859185A285B3850297A10916
:10149000B109281739074A075B0708F063C0618163
:1014A00070E080E090E00E942E109B01AC01F801FA
:1014B00084899589A689B789280F391F4A1F5B1F20
:1014C000211531054105510509F44CC08B81280FC8
:1014D000311D411D511D28A739A74AA75BA78F5F62
:1014E0008B83088D198D2A8D3B8DC8019170A201C7
:1014F000481B590B76014C155D0508F47A016114FF
:10150000710419F480E090E001C0C50148A559A517
:101510006AA57BA59801317087010E94B50D892BC2
:1015200009F5C701A0E0B0E0288D398D4A8D5B8DAB
:10153000280F391F4A1F5B1F288F398F4A8F5B8FF7
:10154000AE0CBF1CCE18DF08F401808191818E0D96
:101550009F1D91838083C114D10409F049CF20E0FD
:1015600030E003C01A8221E030E0C901CDB7DEB718
:10157000E0E10C94C810A0E0B0E0E1ECFAE00C94DB
:10158000B210B82EA92E6A017B012EEF31E002E0E5
:1015900010E00E94B50D892B11F023E033C0CB2D54
:1015A000DA2D8881998185559A4A11F022E02AC066
:1015B0008B2D9A2DB701A60126E330E002E010E062
:1015C0000E94B50D892B39F4888199818654914404
:1015D00011F420E017C08B2D9A2DB701A60122E54A
:1015E00030E002E010E00E94B50D892B11F021E0FF
:1015F00009C020E0888199818654914409F421E052
:1016000081E02827822FCDB7DEB7EAE00C94CE1018
:10161000A0E0B0E0EEE0FBE00C94AC10FC015B015C
:101620003A01C0916301D0916401DA011D921C92CC
:10163000209719F426E030E00BC18A8190E080FD0C
:1016400003C025E030E004C180749070611571051D
:1016500089F4892B59F080E090E040E050E060E0B0
:1016600070E00E941C0E892B09F0EFC08A818F7BED
:101670008A83E8C0892B51F4888D998DAA8DBB8D02
:1016800080709E7F888F998FAA8FBB8F2C8D3D8D08
:101690004E8D5F8D888D998DAA8DBB8D281B390B42
:1016A0004A0B5B0BC501A0E0B0E0281739074A07D9
:1016B0005B0708F459014F01412CB2E05B2EBEC01C
:1016C000E88CF98C0A8D1B8DC7019170892B09F06C
:1016D00077C0C801B701A9E096958795779567957A
:1016E000AA95D1F7298130E040E050E00E946D10CA
:1016F0006115710581059105D9F4E114F104010525
:10170000110529F468A179A18AA19BA106C06CA149
:101710007DA18EA19FA10E94A40462307105810564
:10172000910508F492C06CA37DA38EA39FA31B8296
:1017300000916301109164012CA13DA14EA15FA114
:101740002250304040405040F80180859185A2856C
:10175000B3850297A109B109281739074A075B0722
:1017600008F073C0618170E080E090E00E942E106C
:101770009B01AC01F80184899589A689B789280F56
:10178000391F4A1F5B1F211531054105510509F419
:101790005CC08B81BA01A901480F511D611D711DEB
:1017A00048A759A76AA77BA78F5F8B8380E090E04B
:1017B0000E941C0E892B09F048C08A8180648A83AC
:1017C000888D998D91709201281B390B65012A151E
:1017D0003B0508F46901760100E010E0C401B8019E
:1017E000A7010E941C0E892B81F5888D998DAA8DE9
:1017F000BB8D8E0D9F1DA01FB11F9C01888F998FDF
:10180000AA8FBB8FD3018D919C9111978C0D9D1D3B
:101810008D939C933170232B69F480E090E040E03D
:1018200050E060E070E00E941C0E892B71F48A8108
:101830008F7B8A838C0C9D1CAC18BD08A114B1044D
:1018400009F03ECF20E030E003C01A8221E030E012
:10185000C901CDB7DEB7E0E10C94C810A4E2B0E056
:10186000E4E3FCE00C94AE105C0110926401109271
:101870006301009709F4EEC00E949F0E80FF03C031
:1018800022E030E0EFC04E010894811C911CC4019D
:1018900040E050E060E070E00E94BB0A813021F03F
:1018A000CC24DD2476011BC0C40140E050E060E0A0
:1018B00070E02EEB31E000E110E00E94B50D892BC5
:1018C00009F0CBC08D81882309F4CAC0C984DA84A9
:1018D000EB84FC84C401B701A6010E94BB0A8330DB
:1018E00009F4BBC0882309F0BBC0CE010196B70143
:1018F000A6012DE030E004E210E00E94B50D892B36
:1019000009F0ABC08A859B85BC0180E090E0611541
:1019100071058105910521F4688D798D8A8D9B8DE6
:101920002C8130E040E050E00E942E103B014C0141
:101930008A819B81A0E0B0E0C80ED91EEA1EFB1E82
:10194000F501C486D586E686F786898181832D8157
:101950003E81358324838F8198857C0100E010E0EF
:10196000E114F1040105110521F4EC88FD880E89CC
:101970001F898A819B81A0E0B0E0E81AF90A0A0B6E
:101980001B0BE618F7080809190944E03695279556
:101990004A95E1F7C901A0E0B0E0E81AF90A0A0B9C
:1019A0001B0BF501218130E040E050E0C801B70198
:1019B0000E946D102E5F3F4F4F4F5F4FF501208704
:1019C000318742875387273FFFE03F07F0E04F070B
:1019D000F0E05F0710F481E008C0275F3F4F404010
:1019E000504010F083E001C082E0F5018083833035
:1019F00029F488A199A1AAA1BBA109C0F5018485F8
:101A00009585A685B785860D971DA81DB91D808B68
:101A1000918BA28BB38BF5018481958124E09695FF
:101A200087952A95E1F7A0E0B0E0248535854685C5
:101A30005785820F931FA41FB51F860D971DA81DE4
:101A4000B91D848B958BA68BB78B1282B0926401E3
:101A5000A092630120E030E005C021E030E002C048
:101A600027E030E0C901A496EEE00C94CA105E9A1B
:101A700084EC99E000000197E9F7259A279A569A95
:101A800080E58CBD8DB581608DBD08958FEF8EBDD5
:101A90000DB407FEFDCF8EB508958EBD0DB407FEC3
:101AA000FDCF0895DF92EF92FF920F931F93D82EF0
:101AB0007A018B0187FF0CC087E740E050E060E0CF
:101AC00070E00E94520D823008F049C08FE7D822A2
:101AD0005E9A8FEF8EBD0DB407FEFDCF8EB55E987A
:101AE0008FEF8EBD0DB407FEFDCF8EB5DEBC0DB4FD
:101AF00007FEFDCF812F9927AA27BB278EBD0DB4E6
:101B000007FEFDCFC801AA27BB278EBD0DB407FE77
:101B1000FDCFBB27A12F902F8F2D8EBD0DB407FEBB
:101B2000FDCFEEBC0DB407FEFDCF80E4D81611F456
:101B300085E906C088E4D81611F487E801C081E081
:101B40008EBD0DB407FEFDCF9AE02FEF2EBD0DB474
:101B500007FEFDCF8EB587FF02C09150B9F71F91E8
:101B60000F91FF90EF90DF900895EF92FF920F9307
:101B70001F93CF93DF937C01E9018091670183FD7F
:101B800007C039E0440F551F661F771F3A95D1F7FC
:101B900081E50E94520D882309F03FC080E395E75C
:101BA0003FEF3EBD0DB407FEFDCF2EB52F3F19F41C
:101BB0000197B9F732C02E3F81F5222733272C1B1E
:101BC0003D0B2E5F3D4F201B310B209741F08FEFD7
:101BD0008EBD0DB407FEFDCF9EB52197C9F7E11468
:101BE000F10479F09FEF9EBD0DB407FEFDCF8EB5D9
:101BF000F70180830150104021F00894E11CF11C92
:101C0000F2CF8FEF8EBD0DB407FEFDCF9EB52150F4
:101C10003040C1F720E030E002C021E030E05E9AC1
:101C20008FEF8EBD0DB407FEFDCF8EB5C901CDB7C8
:101C3000DEB7E6E00C94D210FC01009709F1209188
:101C40006501309166010AC080818EBD0DB407FE2A
:101C5000FDCF319641505040215030404115510543
:101C600029F4309366012093650107C021153105E1
:101C700059F7109266011092650120E030E05DC0D6
:101C8000411551056105710521F18091670183FDC1
:101C900007C0E9E0440F551F661F771FEA95D1F78B
:101CA00088E50E94520D882319F021E030E045C0FC
:101CB0008FEF8EBD0DB407FEFDCF8EEF8EBD0DB440
:101CC00007FEFDCF80E092E090936601809365016E
:101CD000D4CF8091650190916601029605C01EBC2B
:101CE0000DB407FEFDCF01970097C9F78FEF8EBDAA
:101CF0000DB407FEFDCF8EB58F718530A9F448EE87
:101D00005DEF9FEF02C0415050409EBD0DB407FEF5
:101D1000FDCF8EB58F3F21F041155105A1F704C0CD
:101D200020E030E0452B11F421E030E05E9A8FEFA7
:101D30008EBD0DB407FEFDCF8EB5C9010895A4E098
:101D4000B0E0E5EAFEE00C94B4100E94370D2C9947
:101D500008C080E090E040E050E060E070E00E9469
:101D60001C0E84E69FEF9EBD0DB407FEFDCF2EB581
:101D70008150C9F780E440E050E060E070E00E94EC
:101D8000520D813009F06EC088E44AEA51E060E00B
:101D900070E00E94520D813009F042C06E0108943B
:101DA000C11CD11C76019FEF9E012B5F3F4F9EBD52
:101DB0000DB407FEFDCF8EB5F70181937F01E217C9
:101DC000F307A9F78B81813009F04CC08C818A3AE6
:101DD00009F048C000EE1EE204C00150104009F4B2
:101DE00041C089EE40E050E060E070E40E94520D96
:101DF000882399F749C09FEF9EBD0DB407FEFDCF24
:101E00008EB5F60181936F01EE15FF05A9F7898163
:101E100086FD03C094E0F92E26C08CE0F82E23C086
:101E200089EE40E050E060E070E00E94520D8230A8
:101E300028F0B1E4EB2EFF24F39404C0A9EEEA2EBF
:101E4000F2E0FF2E08EA11E603C00150104051F005
:101E50008E2D40E050E060E070E00E94520D88233B
:101E6000A1F71DC0FF24F09267015E9A8FEF8EBD2F
:101E70000DB407FEFDCF8EB580E0FF2009F481E0B0
:101E80002496E8E00C94D0108AE740E050E060E04F
:101E900070E00E94520D882309F4ADCFE3CF80E5B6
:101EA00040E052E060E070E00E94520D8823D1F6DD
:101EB000DACFA2E0B0E0EFE5FFE00C94BA108A833D
:101EC00082958F7089834498FE013196898180FDC7
:101ED000449A4598808181FD459A4698808182FD8B
:101EE000469A4798808183FD479A439A439844983D
:101EF000FE0132968A8180FD449A4598808181FD59
:101F0000459A4698808182FD469A4798808183FD54
:101F1000479A439A43982296E2E00C94D610E0E464
:101F2000FCE93197F1F7419A42980E94590F0895C0
:101F3000E0E4FCE93197F1F7419842980E94590F8B
:101F4000089587B1806F87B987B18E6087B980E4C3
:101F50009CE90197F1F74198429888B18F7288B94E
:101F6000459A439A439880E20E94980F8CE00E9421
:101F7000980F86E00E94980F81E00E94980F0895C4
:101F800080E49CE90197F1F7089508950F931F935A
:101F900064E670E00E945910182F092F6AE070E083
:101FA0000E945910862F805D0E948F0F812F902FE5
:101FB0006AE070E00E945910805D0E948F0F1F91AF
:101FC0000F910895CF93DF93EC0124E096958795C8
:101FD0002A95E1F78A3010F0895C01C0805D0E948B
:101FE0008F0F9E012F70822F2A3010F0895C01C064
:101FF000805D0E948F0FDF91CF9108950F931F9303
:10200000CF93DF938C01C0E0D0E002C00E948F0F1D
:10201000F801EC0FFD1F8081882321F02196C1314A
:10202000D105A1F7DF91CF911F910F910895EF9204
:10203000FF920F931F938C017B0181E00E94980F08
:10204000C8010E94FE0F80EC0E94980FC7010E94F9
:10205000FE0F1F910F91FF90EF900895629FD001A6
:10206000739FF001829FE00DF11D649FE00DF11D53
:10207000929FF00D839FF00D749FF00D659FF00D02
:102080009927729FB00DE11DF91F639FB00DE11DEF
:10209000F91FBD01CF0111240895991B79E004C0F7
:1020A000991F961708F0961B881F7A95C9F7809597
:1020B0000895AA1BBB1B51E107C0AA1FBB1FA6178F
:1020C000B70710F0A61BB70B881F991F5A95A9F7E1
:1020D00080959095BC01CD010895A1E21A2EAA1B0E
:1020E000BB1BFD010DC0AA1FBB1FEE1FFF1FA217C8
:1020F000B307E407F50720F0A21BB30BE40BF50BC5
:10210000661F771F881F991F1A9469F7609570954D
:10211000809590959B01AC01BD01CF01089597FB7F
:10212000092E05260ED057FD04D0D7DF0AD0001C9B
:1021300038F450954095309521953F4F4F4F5F4F64
:102140000895F6F790958095709561957F4F8F4F24
:102150009F4F08952F923F924F925F926F927F927E
:102160008F929F92AF92BF92CF92DF92EF92FF92A7
:102170000F931F93CF93DF93CDB7DEB7CA1BDB0B53
:102180000FB6F894DEBF0FBECDBF09942A883988F8
:1021900048885F846E847D848C849B84AA84B984FF
:1021A000C884DF80EE80FD800C811B81AA81B9810B
:1021B000CE0FD11D0FB6F894DEBF0FBECDBFED011F
:1021C0000895FB01DC010D900020E9F711970190C3
:1021D0000D920020E1F70895FB0151915523A9F0DC
:1021E000BF01DC014D9145174111E1F759F4CD01D3
:1021F0000190002049F04D9140154111C9F3FB01B8
:102200004111EFCF81E090E001970895AEE0B0E09A
:10221000ECE0F1E10C94B8100D891E8986E08C8306
:102220001A8309838FEF9FE79E838D839E01275E2C
:102230003F4FCE0101966F89788DA9010E942A1126
:102240002F813885020F131FF80110822E96E4E0CB
:102250000C94D410ABE0B0E0E0E3F1E10C94AA10F0
:102260003C012B015A01FC0117821682838181FDFA
:1022700003C06FEF7FEFC6C19AE0892E1E0108945C
:10228000211C311CF3012381F20123FD859123FFE1
:1022900081912F01882309F4B2C1853239F423FDDD
:1022A000859123FF81912F01853229F490E0B301BC
:1022B0000E941D13E7CF982FFF24EE249924FFE1FD
:1022C000FF15D0F09B3269F09C3228F4903259F01F
:1022D000933291F40EC09D3249F0903369F441E09D
:1022E00024C052E0F52A84E0F82A28C098E0F92AB0
:1022F00025C0E0E1FE2A22C0F7FC29C0892F8053C7
:102300008A3070F4F6FE05C0989C902C1124980E2B
:1023100015C0E89CE02C1124E80EF0E2FF2A0EC064
:102320009E3229F4F6FC6BC140E4F42A07C09C36C7
:1023300019F450E8F52A02C0983649F4F20123FD59
:10234000959123FF91912F01992309F0B8CF892FFF
:102350008554833018F08052833038F444E050E0E4
:10236000A40EB51E5FE359830FC0933631F0933747
:1023700079F0933509F056C020C0F501808189833A
:1023800042E050E0A40EB51E610101E010E012C071
:10239000F501C080D180F6FC03C06FEF7FEF02C073
:1023A000692D70E042E050E0A40EB51EC6010E9407
:1023B00012138C015FE7F52214C0F501C080D180B3
:1023C000F6FC03C06FEF7FEF02C0692D70E042E0C2
:1023D00050E0A40EB51EC6010E9407138C0150E800
:1023E000F52AF3FE07C01AC080E290E0B3010E9414
:1023F0001D13EA948E2D90E008171907A8F30EC05C
:10240000F601F7FC8591F7FE81916F0190E0B30131
:102410000E941D13E110EA940150104001151105AE
:1024200079F7EAC0943611F0993669F5F7FE08C0DD
:10243000F501208131814281538184E090E00AC01E
:10244000F501808191819C01442737FD4095542FEF
:1024500082E090E0A80EB91E9FE6F92257FF09C05E
:1024600050954095309521953F4F4F4F5F4FE0E895
:10247000FE2ACA01B901A1012AE030E00E944913F5
:10248000D82ED21840C0953729F41F2D1F7E2AE080
:1024900030E01DC01F2D197F9F3661F0903720F46A
:1024A000983509F0ACC00FC0903739F0983709F073
:1024B000A6C004C028E030E00AC0106114FD14601A
:1024C00020E130E004C014FD166020E132E017FF87
:1024D00008C0F501608171818281938144E050E000
:1024E00008C0F50180819181BC0180E090E042E06C
:1024F00050E0A40EB51EA1010E944913D82ED21897
:102500008FE7F82EF122F6FE0BC05EEFF522D9140C
:1025100038F4F4FE07C0F2FC05C08FEEF82202C0CA
:102520001D2D01C0192DF4FE0DC0FE01ED0DF11D94
:102530008081803319F499EEF92208C01F5FF2FE02
:1025400005C003C08F2D867809F01F5F0F2DF3FCA7
:1025500014C0F0FE0FC01E1510F09D2C0BC09D2C5A
:102560009E0C911A1E2D06C080E290E0B3010E94DD
:102570001D131F5F1E15C0F304C01E1510F4E11AD1
:1025800001C0EE2404FF0FC080E390E0B3010E947D
:102590001D1302FF1DC001FD03C088E790E00EC0BF
:1025A00088E590E00BC0802F867891F001FF02C093
:1025B0008BE201C080E2F7FC8DE290E0B3010E9463
:1025C0001D1306C080E390E0B3010E941D139A948E
:1025D000D914C0F3DA94F101ED0DF11D808190E082
:1025E000B3010E941D13DD20A9F706C080E290E030
:1025F000B3010E941D13EA94EE20C1F743CEF3010C
:1026000066817781CB012B96E2E10C94C610FC0128
:102610000590615070400110D8F7809590958E0F0D
:102620009F1F0895FC016150704001900110D8F780
:10263000809590958E0F9F1F08950F931F93CF93B2
:10264000DF938C01EB018B8181FF1BC082FF0DC0EA
:102650002E813F818C819D812817390764F4E881A0
:10266000F9810193F983E88306C0E885F985802F15
:102670000995892B31F48E819F8101969F838E83EA
:1026800002C00FEF1FEFC801DF91CF911F910F9193
:102690000895FA01AA27283051F1203181F1E894F8
:1026A0006F936E7F6E5F7F4F8F4F9F4FAF4FB1E045
:1026B0003ED0B4E03CD0670F781F891F9A1FA11D40
:1026C000680F791F8A1F911DA11D6A0F711D811D41
:1026D000911DA11D20D009F468943F912AE0269F06
:1026E00011243019305D3193DEF6CF010895462F65
:1026F0004770405D4193B3E00FD0C9F7F6CF462F46
:102700004F70405D4A3318F0495D31FD40524193AE
:1027100002D0A9F7EACFB4E0A6959795879577956B
:102720006795BA95C9F700976105710508959B01F2
:10273000AC010A2E06945795479537952795BA957B
:10274000C9F7620F731F841F951FA01D0895F89489
:02275000FFCFB9
:102752005354415254007465737400574156006DCE
:10276200757369632F0074696D652E574156002594
:10277200642E57415600686F7572732E574156008A
:102782006D696E757465732E57415600616E642EC5
:10279200574156007365636F6E64732E574156003E
:1027A200253032643A253032643A253032640001F1
:00000001FF
