:100000000C942A000C943F000C943F000C943F0089
:100010000C943F000C943F000C943F000C943F0064
:100020000C943F000C943F000C943F000C943F0054
:100030000C943F000C943F000C943F000C943F0044
:100040000C943F000C943F000C943F000C943F0034
:100050000C943F0011241FBECFE5D4E0DEBFCDBF1E
:1000600011E0A0E6B0E0E2E5FAE302C005900D92EF
:10007000AE3BB107D9F70E94E5030C94271D0C9401
:100080000000DF93CF93CDB7DEB72F970FB6F8946C
:10009000DEBF0FBECDBFABE3B0E0EBE3F0E08081AD
:1000A00080688C9380E090E0AAEFB3E48B879C8714
:1000B000AD87BE876B857C858D859E8520E030E091
:1000C0004AE755E40E946A17DC01CB018F839887C9
:1000D000A987BA876F81788589859A8520E030E085
:1000E00040E85FE30E94701988232CF481E090E0DF
:1000F0009E838D833FC06F81788589859A8520E0B6
:100100003FEF4FE757E40E94101918164CF56B8526
:100110007C858D859E8520E030E040E251E40E94A0
:100120006A17DC01CB01BC01CD010E949415DC01F2
:10013000CB019E838D830FC080E991E09C838B83EC
:100140008B819C810197F1F79C838B838D819E81AC
:1001500001979E838D838D819E81009769F714C0DE
:100160006F81788589859A850E949415DC01CB0181
:100170009E838D838D819E819A83898389819A81D3
:100180000197F1F79A838983EBE3F0E08081EBE359
:10019000F0E010822F960FB6F894DEBF0FBECDBFF1
:1001A000CF91DF910895DF93CF93CDB7DEB72F972F
:1001B0000FB6F894DEBF0FBECDBFABE3B0E0EBE30C
:1001C000F0E0808180688C9380E090E8ABEBB4E451
:1001D0008B879C87AD87BE876B857C858D859E854B
:1001E00020E030E04AE755E40E946A17DC01CB01C9
:1001F0008F839887A987BA876F81788589859A8543
:1002000020E030E040E85FE30E94701988232CF47E
:1002100081E090E09E838D833FC06F8178858985E2
:100220009A8520E03FEF4FE757E40E941019181617
:100230004CF56B857C858D859E8520E030E040E225
:1002400051E40E946A17DC01CB01BC01CD010E9480
:100250009415DC01CB019E838D830FC080E991E072
:100260009C838B838B819C810197F1F79C838B838B
:100270008D819E8101979E838D838D819E810097C4
:1002800069F714C06F81788589859A850E949415D5
:10029000DC01CB019E838D838D819E819A8389832E
:1002A00089819A810197F1F79A838983EBE3F0E0E2
:1002B0008081EBE3F0E010822F960FB6F894DEBF5A
:1002C0000FBECDBFCF91DF910895DF93CF93CDB710
:1002D000DEB760970FB6F894DEBF0FBECDBF988B28
:1002E0008F872F85388984EF91E0AC01249FC0016E
:1002F000259F900D349F900D1124AA2797FDA0955E
:10030000BA2FBC01CD010E94A019DC01CB018B8763
:100310009C87AD87BE876B857C858D859E8520E01B
:1003200030E04AE755E40E946A17DC01CB018F8375
:100330009887A987BA876F81788589859A8520E013
:1003400030E040E85FE30E94701988232CF481E0DC
:1003500090E09E838D833FC06F81788589859A85E3
:1003600020E03FEF4FE757E40E94101918164CF5B4
:100370006B857C858D859E8520E030E040E251E4F0
:100380000E946A17DC01CB01BC01CD010E949415CB
:10039000DC01CB019E838D830FC080E991E09C83BB
:1003A0008B838B819C810197F1F79C838B838D815B
:1003B0009E8101979E838D838D819E81009769F731
:1003C00014C06F81788589859A850E949415DC0117
:1003D000CB019E838D838D819E819A8389838981C0
:1003E0009A810197F1F79A83898360960FB6F89402
:1003F000DEBF0FBECDBFCF91DF910895DF93CF93C6
:10040000CDB7DEB70E94410084E690E069E170E07C
:100410000E94BD0281E090E00E9465010E94D3002D
:1004200088EC90E064E670E00E94BD0283E090E01A
:100430000E946501CF91DF910895DF93CF93CDB7EF
:10044000DEB70E94D30088EC90E064E670E00E9482
:10045000BD0281E090E00E9465010E94D30088EC1B
:1004600090E064E670E00E94BD0281E090E00E94AE
:1004700065010E94D30088EC90E064E670E00E9481
:10048000BD0283E090E00E946501CF91DF91089565
:10049000DF93CF93CDB7DEB70E94410084E690E0B2
:1004A00069E170E00E94BD0281E090E00E94650178
:1004B0000E94410084E690E069E170E00E94BD0284
:1004C00081E090E00E9465010E94410084E690E096
:1004D00069E170E00E94BD0283E090E00E94650146
:1004E000CF91DF9108950F931F93DF93CF9300D0A7
:1004F00000D000D0CDB7DEB79C838B837E836D8325
:1005000081E060E00E9407048D819E810E94881432
:100510001A8219821EC029813A818B819C81FC013B
:10052000E20FF31F8081833719F40E9448020CC048
:1005300029813A818B819C81FC01E20FF31F80812C
:100540008F3611F40E941D0289819A8101969A8347
:10055000898309811A818B819C810E941E1D081745
:100560001907C8F226960FB6F894DEBF0FBECDBFAE
:10057000CF91DF911F910F910895DF93CF93CDB766
:10058000DEB7A1970FB6F894DEBF0FBECDBF9E8F2A
:100590008D8F78A36F8FA4E3B0E0E4E3F0E0808177
:1005A00081608C9304C1A5E3B0E0E5E3F0E08081D5
:1005B00081608C938F8D98A1CC01A0E0B0E0BC014C
:1005C000CD010E94521ADC01CB01898F9A8FAB8F2B
:1005D000BC8F698D7A8D8B8D9C8D20E030E04AE751
:1005E00055E40E946A17DC01CB018D8B9E8BAF8B8B
:1005F000B88F6D897E898F89988D20E030E040E842
:100600005FE30E94701988232CF481E090E09C8BBA
:100610008B8B3FC06D897E898F89988D20E03FEF5D
:100620004FE757E40E94101918164CF5698D7A8D22
:100630008B8D9C8D20E030E040E251E40E946A17EF
:10064000DC01CB01BC01CD010E949415DC01CB0182
:100650009C8B8B8B0FC080E991E09A8B898B898969
:100660009A890197F1F79A8B898B8B899C890197DD
:100670009C8B8B8B8B899C89009769F714C06D8943
:100680007E898F89988D0E949415DC01CB019C8B0B
:100690008B8B8B899C89988B8F878F859889019705
:1006A000F1F7988B8F87E5E3F0E08081E5E3F0E0F8
:1006B00010828F8D98A1CC01A0E0B0E0BC01CD01EB
:1006C0000E94521ADC01CB018B879C87AD87BE87C5
:1006D0006B857C858D859E8520E030E04AE755E47A
:1006E0000E946A17DC01CB018F839887A987BA879C
:1006F0006F81788589859A8520E030E040E85FE366
:100700000E94701988232CF481E090E09E838D83F1
:100710003FC06F81788589859A8520E03FEF4FE75C
:1007200057E40E94101918164CF56B857C858D8551
:100730009E8520E030E040E251E40E946A17DC012F
:10074000CB01BC01CD010E949415DC01CB019E833D
:100750008D830FC080E991E09C838B838B819C818A
:100760000197F1F79C838B838D819E8101979E83F6
:100770008D838D819E81009769F714C06F81788584
:1007800089859A850E949415DC01CB019E838D8317
:100790008D819E819A83898389819A810197F1F75E
:1007A0009A8389838D8D9E8D01979E8F8D8F8D8DE0
:1007B0009E8D009709F0F7CEA1960FB6F894DEBF94
:1007C0000FBECDBFCF91DF910895DF93CF9300D0BF
:1007D000CDB7DEB7AAE3B0E0EAE3F0E0808180685D
:1007E0008C93A4E3B0E0E4E3F0E0808181608C933B
:1007F00083E00E94DB1081E060E00E94070480E655
:1008000090E024E630E0B9010E947302F8CF0F9324
:100810001F93DF93CF93CDB7DEB7CD57D0400FB640
:10082000F894DEBF0FBECDBFFE01E458FF4F8083BA
:10083000FE01E358FF4F6083DE01A558BF4FFE0164
:10084000E458FF4F808182958F708C93DE01A6580B
:10085000BF4FFE01E458FF4F80818F708C93FE01E3
:10086000E358FF4F8081882341F4ABE3B0E0EBE332
:10087000F0E080818F7E8C9307C0ABE3B0E0EBE3C8
:10088000F0E0808180618C93FE01EB58FF4F80E0A7
:1008900090E0A0E0BFE380839183A283B3838E01C5
:1008A0000F581F4FFE01EB58FF4F6081718182810D
:1008B00093812BEA3AEA4AEA5EE30E946A17DC0176
:1008C000CB01F80180839183A283B383FE01EF58AB
:1008D000FF4F608171818281938120E030E040E8A8
:1008E0005FE30E947019882334F4FE01E059FF4F42
:1008F00081E08083E0C0FE01EF58FF4F608171818D
:100900008281938120E030E04FE753E40E94101988
:1009100018160CF0C0C0FE01EB58FF4F60817181CA
:100920008281938120E030E04AE754E40E94641819
:10093000DC01CB01FE01E459FF4F80839183A28348
:10094000B3838E0108591F4FFE01E459FF4F6081A8
:1009500071818281938120E030E04AE753E40E9474
:100960006A17DC01CB01F80180839183A283B383F2
:10097000FE01E859FF4F608171818281938120E0FF
:1009800030E040E85FE30E947019882344F4FE01E0
:10099000EA59FF4F81E090E09183808364C0FE01BB
:1009A000E859FF4F608171818281938120E03FEFA0
:1009B0004FE757E40E94101918160CF043C0FE01CF
:1009C000E459FF4F608171818281938120E030E0A2
:1009D00040E251E40E946A17DC01CB018E010A5902
:1009E0001F4FBC01CD010E949415DC01CB01F80121
:1009F000918380831FC0FE01EC59FF4F89E190E095
:100A000091838083FE01EC59FF4F80819181019792
:100A1000F1F7FE01EC59FF4F91838083DE01AA5963
:100A2000BF4FFE01EA59FF4F8081918101971196D6
:100A30009C938E93FE01EA59FF4F8081918100972C
:100A4000D1F64BC08E010A591F4FFE01E859FF4FE6
:100A500060817181828193810E949415DC01CB01B8
:100A6000F80191838083DE01AE59BF4FFE01EA5940
:100A7000FF4F8081918111969C938E93FE01EE59D8
:100A8000FF4F808191810197F1F7FE01EE59FF4FF1
:100A90009183808322C08E0100591F4FFE01EF58C1
:100AA000FF4F60817181828193810E949415DC01E6
:100AB000CB01F8018083DE01AF59BF4FFE01E05941
:100AC000FF4F80818C93FE01EF59FF4F80818A9503
:100AD000F1F7FE01EF59FF4F8083ABE3B0E0EBE3AA
:100AE000F0E0808180648C93EBE3F0E08081982FCC
:100AF000907FFE01E558FF4F8081892BFE01E7586A
:100B0000FF4F8083ABE3B0E0FE01E758FF4F8081E9
:100B10008C93FE01E35AFF4F80E090E0A0E8BFE332
:100B200080839183A283B3838E01075A1F4FFE01F6
:100B3000E35AFF4F60817181828193812BEA3AEA07
:100B40004AEA5EE30E946A17DC01CB01F801808368
:100B50009183A283B383FE01E75AFF4F60817181C5
:100B60008281938120E030E040E85FE30E947019C9
:100B7000882334F4FE01E85AFF4F81E08083E0C00F
:100B8000FE01E75AFF4F608171818281938120E0ED
:100B900030E04FE753E40E94101918160CF0C0C063
:100BA000FE01E35AFF4F608171818281938120E0D1
:100BB00030E04AE754E40E946418DC01CB01FE01F6
:100BC000EC5AFF4F80839183A283B3838E01005B35
:100BD0001F4FFE01EC5AFF4F60817181828193812A
:100BE00020E030E04AE753E40E946A17DC01CB01C1
:100BF000F80180839183A283B383FE01E05BFF4F02
:100C0000608171818281938120E030E040E85FE380
:100C10000E947019882344F4FE01E25BFF4F81E0DB
:100C200090E09183808364C0FE01E05BFF4F6081B0
:100C300071818281938120E03FEF4FE757E40E946A
:100C4000101918160CF043C0FE01EC5AFF4F6081DA
:100C500071818281938120E030E040E251E40E9482
:100C60006A17DC01CB018E01025B1F4FBC01CD0175
:100C70000E949415DC01CB01F801918380831FC091
:100C8000FE01E45BFF4F89E190E091838083FE01E8
:100C9000E45BFF4F808191810197F1F7FE01E45BF6
:100CA000FF4F91838083DE01A25BBF4FFE01E25BB9
:100CB000FF4F80819181019711969C938E93FE0145
:100CC000E25BFF4F808191810097D1F64BC08E018E
:100CD000025B1F4FFE01E05BFF4F608171818281EB
:100CE00093810E949415DC01CB01F80191838083EC
:100CF000DE01A65BBF4FFE01E25BFF4F8081918169
:100D000011969C938E93FE01E65BFF4F808191814B
:100D10000197F1F7FE01E65BFF4F9183808322C0CC
:100D20008E01085A1F4FFE01E75AFF4F6081718103
:100D3000828193810E949415DC01CB01F8018083AC
:100D4000DE01A75BBF4FFE01E85AFF4F80818C9305
:100D5000FE01E75BFF4F80818A95F1F7FE01E75BBB
:100D6000FF4F8083ABE3B0E0EBE3F0E080818F7B6B
:100D70008C93FE01EB5BFF4F80E090E0A0E8BFE3C7
:100D800080839183A283B3838E010F5B1F4FFE018B
:100D9000EB5BFF4F60817181828193812BEA3AEA9C
:100DA0004AEA5EE30E946A17DC01CB01F801808306
:100DB0009183A283B383FE01EF5BFF4F608171815A
:100DC0008281938120E030E040E85FE30E94701967
:100DD000882334F481E0FE01E05CFF4F80839DC0F6
:100DE000FE01EF5BFF4F608171818281938120E082
:100DF00030E04FE753E40E94101918160CF07EC043
:100E0000FE01EB5BFF4F608171818281938120E065
:100E100030E04AE754E40E946418DC01CB018CAF57
:100E20009DAFAEAFBFAF6CAD7DAD8EAD9FAD20E0E1
:100E300030E04AE753E40E946A17DC01CB0188AF37
:100E400099AFAAAFBBAF68AD79AD8AAD9BAD20E0DD
:100E500030E040E85FE30E94701988232CF481E0C1
:100E600090E09FAB8EAB3FC068AD79AD8AAD9BADD6
:100E700020E03FEF4FE757E40E94101918164CF599
:100E80006CAD7DAD8EAD9FAD20E030E040E251E431
:100E90000E946A17DC01CB01BC01CD010E949415B0
:100EA000DC01CB019FAB8EAB0FC089E190E09DAB25
:100EB0008CAB8CA99DA90197F1F79DAB8CAB8EA94A
:100EC0009FA901979FAB8EAB8EA99FA9009769F749
:100ED0002DC068AD79AD8AAD9BAD0E949415DC0143
:100EE000CB019FAB8EAB8EA99FA99BAB8AAB8AA986
:100EF0009BA90197F1F79BAB8AAB18C0FE01EF5B92
:100F0000FF4F60817181828193810E949415DC0181
:100F1000CB01FE01E05CFF4F8083FE01E05CFF4FF0
:100F2000808189AB89A98A95F1F789ABABE3B0E001
:100F3000EBE3F0E0808180648C93EBE3F0E0808170
:100F4000982F907FFE01E658FF4F8081892BFE018C
:100F5000E758FF4F8083ABE3B0E0FE01E758FF4F57
:100F600080818C9380E090E0A0E8BFE38DA79EA7EE
:100F7000AFA7B8AB6DA57EA58FA598A92BEA3AEAD5
:100F80004AEA5EE30E946A17DC01CB0189A79AA7AF
:100F9000ABA7BCA769A57AA58BA59CA520E030E0EE
:100FA00040E85FE30E94701988231CF481E088A761
:100FB00091C069A57AA58BA59CA520E030E04FE7FC
:100FC00053E40E94101918160CF07BC06DA57EA585
:100FD0008FA598A920E030E04AE754E40E94641805
:100FE000DC01CB018CA39DA3AEA3BFA36CA17DA10B
:100FF0008EA19FA120E030E04AE753E40E946A17E7
:10100000DC01CB0188A399A3AAA3BBA368A179A102
:101010008AA19BA120E030E040E85FE30E947019C4
:1010200088232CF481E090E09F8F8E8F3FC068A1D1
:1010300079A18AA19BA120E03FEF4FE757E40E94EE
:10104000101918164CF56CA17DA18EA19FA120E06E
:1010500030E040E251E40E946A17DC01CB01BC01A0
:10106000CD010E949415DC01CB019F8F8E8F0FC0A4
:1010700089E190E09D8F8C8F8C8D9D8D0197F1F78C
:101080009D8F8C8F8E8D9F8D01979F8F8E8F8E8DD4
:101090009F8D009769F724C068A179A18AA19BA1BF
:1010A0000E949415DC01CB019F8F8E8F8E8D9F8DBA
:1010B0009B8F8A8F8A8D9B8D0197F1F79B8F8A8FEB
:1010C0000FC069A57AA58BA59CA50E949415DC018B
:1010D000CB0188A788A5898F898D8A95F1F7898F9B
:1010E000ABE3B0E0EBE3F0E080818F7B8C9380E0BA
:1010F00090E0A0E8BFE38D8B9E8BAF8BB88F6D899E
:101100007E898F89988D2BEA3AEA4AEA5EE30E944B
:101110006A17DC01CB01898B9A8BAB8BBC8B6989FD
:101120007A898B899C8920E030E040E85FE30E9467
:10113000701988231CF481E0888B91C069897A89B1
:101140008B899C8920E030E04FE753E40E9410191E
:1011500018160CF07BC06D897E898F89988D20E0F0
:1011600030E04AE754E40E946418DC01CB018C872C
:101170009D87AE87BF876C857D858E859F8520E0A6
:1011800030E04AE753E40E946A17DC01CB0188870C
:101190009987AA87BB87688579858A859B8520E0A2
:1011A00030E040E85FE30E94701988232CF481E06E
:1011B00090E09F838E833FC0688579858A859B8573
:1011C00020E03FEF4FE757E40E94101918164CF546
:1011D0006C857D858E859F8520E030E040E251E47E
:1011E0000E946A17DC01CB01BC01CD010E9494155D
:1011F000DC01CB019F838E830FC089E190E09D834A
:101200008C838C819D810197F1F79D838C838E81E6
:101210009F8101979F838E838E819F81009769F7BD
:1012200024C0688579858A859B850E949415DC0198
:10123000CB019F838E838E819F819B838A838A814A
:101240009B810197F1F79B838A830FC069897A8913
:101250008B899C890E949415DC01CB01888B88893D
:10126000898389818A95F1F789830E944309C3584C
:10127000DF4F0FB6F894DEBF0FBECDBFCF91DF9129
:101280001F910F9108950F931F93DF93CF93CDB7C5
:10129000DEB7CB5AD0400FB6F894DEBF0FBECDBF3D
:1012A000FE01E655FF4F1082AAE3B0E0EAE3F0E06A
:1012B0008081807F8C93ABE3B0E0EBE3F0E0808152
:1012C00080628C93ABE3B0E0EBE3F0E080818F7E53
:1012D0008C93FE01EB55FF4F80E090E0A0E0BFE370
:1012E00080839183A283B3838E010F551F4FFE012C
:1012F000EB55FF4F60817181828193812BEA3AEA3D
:101300004AEA5EE30E946A17DC01CB01F8018083A0
:101310009183A283B383FE01EF55FF4F60817181FA
:101320008281938120E030E040E85FE30E94701901
:10133000882334F4FE01E056FF4F81E08083E0C053
:10134000FE01EF55FF4F608171818281938120E022
:1013500030E04FE753E40E94101918160CF0C0C09B
:10136000FE01EB55FF4F608171818281938120E006
:1013700030E04AE754E40E946418DC01CB01FE012E
:10138000E456FF4F80839183A283B3838E01085676
:101390001F4FFE01E456FF4F60817181828193816E
:1013A00020E030E04AE753E40E946A17DC01CB01F9
:1013B000F80180839183A283B383FE01E856FF4F37
:1013C000608171818281938120E030E040E85FE3B9
:1013D0000E947019882344F4FE01EA56FF4F81E011
:1013E00090E09183808364C0FE01E856FF4F6081E6
:1013F00071818281938120E03FEF4FE757E40E94A3
:10140000101918160CF043C0FE01E456FF4F60811E
:1014100071818281938120E030E040E251E40E94BA
:101420006A17DC01CB018E010A561F4FBC01CD01AA
:101430000E949415DC01CB01F801918380831FC0C9
:10144000FE01EC56FF4F89E190E091838083FE011D
:10145000EC56FF4F808191810197F1F7FE01EC5628
:10146000FF4F91838083DE01AA56BF4FFE01EA56EB
:10147000FF4F80819181019711969C938E93FE017D
:10148000EA56FF4F808191810097D1F64BC08E01C3
:101490000A561F4FFE01E856FF4F6081718182811D
:1014A00093810E949415DC01CB01F8019183808324
:1014B000DE01AE56BF4FFE01EA56FF4F808191819B
:1014C00011969C938E93FE01EE56FF4F8081918181
:1014D0000197F1F7FE01EE56FF4F9183808322C002
:1014E0008E0100561F4FFE01EF55FF4F6081718145
:1014F000828193810E949415DC01CB01F8018083E5
:10150000DE01AF56BF4FFE01E056FF4F80818C9346
:10151000FE01EF56FF4F80818A95F1F7FE01EF56ED
:10152000FF4F8083ABE3B0E0EBE3F0E080818064C9
:101530008C93FE01E357FF4F80E090E0A0E0BFE313
:1015400080839183A283B3838E0107571F4FFE01CF
:10155000E357FF4F60817181828193812BEA3AEAE0
:101560004AEA5EE30E946A17DC01CB01F80180833E
:101570009183A283B383FE01E757FF4F608171819E
:101580008281938120E030E040E85FE30E9470199F
:10159000882334F4FE01E857FF4F81E08083E0C0E8
:1015A000FE01E757FF4F608171818281938120E0C6
:1015B00030E04FE753E40E94101918160CF0C0C039
:1015C000FE01E357FF4F608171818281938120E0AA
:1015D00030E04AE754E40E946418DC01CB01FE01CC
:1015E000EC57FF4F80839183A283B3838E01005811
:1015F0001F4FFE01EC57FF4F608171818281938103
:1016000020E030E04AE753E40E946A17DC01CB0196
:10161000F80180839183A283B383FE01E058FF4FDA
:10162000608171818281938120E030E040E85FE356
:101630000E947019882344F4FE01E258FF4F81E0B4
:1016400090E09183808364C0FE01E058FF4F608189
:1016500071818281938120E03FEF4FE757E40E9440
:10166000101918160CF043C0FE01EC57FF4F6081B3
:1016700071818281938120E030E040E251E40E9458
:101680006A17DC01CB018E0102581F4FBC01CD014E
:101690000E949415DC01CB01F801918380831FC067
:1016A000FE01E458FF4F89E190E091838083FE01C1
:1016B000E458FF4F808191810197F1F7FE01E458D2
:1016C000FF4F91838083DE01A258BF4FFE01E25895
:1016D000FF4F80819181019711969C938E93FE011B
:1016E000E258FF4F808191810097D1F64BC08E0167
:1016F00002581F4FFE01E058FF4F608171818281C7
:1017000093810E949415DC01CB01F80191838083C1
:10171000DE01A658BF4FFE01E258FF4F8081918144
:1017200011969C938E93FE01E658FF4F8081918124
:101730000197F1F7FE01E658FF4F9183808322C0A5
:101740008E0108571F4FFE01E757FF4F60817181DF
:10175000828193810E949415DC01CB01F801808382
:10176000DE01A758BF4FFE01E857FF4F80818C93E1
:10177000FE01E758FF4F80818A95F1F7FE01E75897
:10178000FF4F8083E9E3F0E0DE01A655BF4F808183
:101790008C93DE01A655BF4FFE01E655FF4F8081B9
:1017A0008295807F8C93FE01EB58FF4F80E090E0A4
:1017B000A0E0BFE380839183A283B3838E010F589F
:1017C0001F4FFE01EB58FF4F608171818281938131
:1017D0002BEA3AEA4AEA5EE30E946A17DC01CB018F
:1017E000F80180839183A283B383FE01EF58FF4FFA
:1017F000608171818281938120E030E040E85FE385
:101800000E947019882334F4FE01E059FF4F81E0F3
:101810008083E0C0FE01EF58FF4F608171818281BB
:10182000938120E030E04FE753E40E94101918162E
:101830000CF0C0C0FE01EB58FF4F608171818281C6
:10184000938120E030E04AE754E40E946418DC0110
:10185000CB01FE01E459FF4F80839183A283B383C0
:101860008E0108591F4FFE01E459FF4F60817181BD
:101870008281938120E030E04AE753E40E946A17B6
:10188000DC01CB01F80180839183A283B383FE0145
:10189000E859FF4F608171818281938120E030E0BF
:1018A00040E85FE30E947019882344F4FE01EA597E
:1018B000FF4F81E090E09183808364C0FE01E8598E
:1018C000FF4F608171818281938120E03FEF4FE77C
:1018D00057E40E94101918160CF043C0FE01E45999
:1018E000FF4F608171818281938120E030E040E28E
:1018F00051E40E946A17DC01CB018E010A591F4F87
:10190000BC01CD010E949415DC01CB01F80191834B
:1019100080831FC0FE01EC59FF4F89E190E0918365
:101920008083FE01EC59FF4F808191810197F1F78F
:10193000FE01EC59FF4F91838083DE01AA59BF4F0E
:10194000FE01EA59FF4F80819181019711969C9386
:101950008E93FE01EA59FF4F808191810097D1F665
:101960004BC08E010A591F4FFE01E859FF4F60819D
:101970007181828193810E949415DC01CB01F80171
:1019800091838083DE01AE59BF4FFE01EA59FF4FBC
:101990008081918111969C938E93FE01EE59FF4FA9
:1019A000808191810197F1F7FE01EE59FF4F9183FC
:1019B000808322C08E0100591F4FFE01EF58FF4F58
:1019C00060817181828193810E949415DC01CB0139
:1019D000F8018083DE01AF59BF4FFE01E059FF4F90
:1019E00080818C93FE01EF59FF4F80818A95F1F73A
:1019F000FE01EF59FF4F8083ABE3B0E0EBE3F0E093
:101A000080818F7B8C93FE01E35AFF4F80E090E052
:101A1000A0E8BFE380839183A283B3838E01075A3A
:101A20001F4FFE01E35AFF4F6081718182819381D4
:101A30002BEA3AEA4AEA5EE30E946A17DC01CB012C
:101A4000F80180839183A283B383FE01E75AFF4F9D
:101A5000608171818281938120E030E040E85FE322
:101A60000E947019882334F4FE01E85AFF4F81E088
:101A70008083E0C0FE01E75AFF4F6081718182815F
:101A8000938120E030E04FE753E40E9410191816CC
:101A90000CF0C0C0FE01E35AFF4F6081718182816A
:101AA000938120E030E04AE754E40E946418DC01AE
:101AB000CB01FE01EC5AFF4F80839183A283B38355
:101AC0008E01005B1F4FFE01EC5AFF4F6081718158
:101AD0008281938120E030E04AE753E40E946A1754
:101AE000DC01CB01F80180839183A283B383FE01E3
:101AF000E05BFF4F608171818281938120E030E063
:101B000040E85FE30E947019882344F4FE01E25B21
:101B1000FF4F81E090E09183808364C0FE01E05B31
:101B2000FF4F608171818281938120E03FEF4FE719
:101B300057E40E94101918160CF043C0FE01EC5A2D
:101B4000FF4F608171818281938120E030E040E22B
:101B500051E40E946A17DC01CB018E01025B1F4F2A
:101B6000BC01CD010E949415DC01CB01F8019183E9
:101B700080831FC0FE01E45BFF4F89E190E0918309
:101B80008083FE01E45BFF4F808191810197F1F733
:101B9000FE01E45BFF4F91838083DE01A25BBF4FB8
:101BA000FE01E25BFF4F80819181019711969C932A
:101BB0008E93FE01E25BFF4F808191810097D1F609
:101BC0004BC08E01025B1F4FFE01E05BFF4F608147
:101BD0007181828193810E949415DC01CB01F8010F
:101BE00091838083DE01A65BBF4FFE01E25BFF4F66
:101BF0008081918111969C938E93FE01E65BFF4F4D
:101C0000808191810197F1F7FE01E65BFF4F91839F
:101C1000808322C08E01085A1F4FFE01E75AFF4FF2
:101C200060817181828193810E949415DC01CB01D6
:101C3000F8018083DE01A75BBF4FFE01E85AFF4F2A
:101C400080818C93FE01E75BFF4F80818A95F1F7DD
:101C5000FE01E75BFF4F8083ABE3B0E0EBE3F0E036
:101C6000808180648C93FE01EB5BFF4F80E090E00D
:101C7000A0E0BFE380839183A283B3838E010F5BD7
:101C80001F4FFE01EB5BFF4F608171818281938169
:101C90002BEA3AEA4AEA5EE30E946A17DC01CB01CA
:101CA000F80180839183A283B383FE01EF5BFF4F32
:101CB000608171818281938120E030E040E85FE3C0
:101CC0000E947019882334F481E0FE01E05CFF4F2C
:101CD00080839DC0FE01EF5BFF4F60817181828137
:101CE000938120E030E04FE753E40E94101918166A
:101CF0000CF07EC0FE01EB5BFF4F60817181828141
:101D0000938120E030E04AE754E40E946418DC014B
:101D1000CB018CAF9DAFAEAFBFAF6CAD7DAD8EAD27
:101D20009FAD20E030E04AE753E40E946A17DC01EF
:101D3000CB0188AF99AFAAAFBBAF68AD79AD8AAD23
:101D40009BAD20E030E040E85FE30E9470198823FB
:101D50002CF481E090E09FAB8EAB3FC068AD79ADD5
:101D60008AAD9BAD20E03FEF4FE757E40E9410198A
:101D700018164CF56CAD7DAD8EAD9FAD20E030E01A
:101D800040E251E40E946A17DC01CB01BC01CD01A5
:101D90000E949415DC01CB019FAB8EAB0FC089E193
:101DA00090E09DAB8CAB8CA99DA90197F1F79DAB01
:101DB0008CAB8EA99FA901979FAB8EAB8EA99FA9D3
:101DC000009769F72DC068AD79AD8AAD9BAD0E94D3
:101DD0009415DC01CB019FAB8EAB8EA99FA99BAB69
:101DE0008AAB8AA99BA90197F1F79BAB8AAB18C074
:101DF000FE01EF5BFF4F60817181828193810E94C0
:101E00009415DC01CB01FE01E05CFF4F8083FE01F5
:101E1000E05CFF4F808189AB89A98A95F1F789AB96
:101E2000E9E3F0E0DE01A755BF4F80818C93DE012E
:101E3000A755BF4FFE01E755FF4F80818F708C93F0
:101E40009E0126553F4FFE01E655FF4FDE01A75587
:101E5000BF4F90818C91892BF9018083DE01A555BC
:101E6000BF4FFE01E655FF4F808180788C9380E064
:101E700090E0A0E0BFE38DA79EA7AFA7B8AB6DA58C
:101E80007EA58FA598A92BEA3AEA4AEA5EE30E946A
:101E90006A17DC01CB0189A79AA7ABA7BCA769A5E4
:101EA0007AA58BA59CA520E030E040E85FE30E9486
:101EB000701988231CF481E088A791C069A57AA5D0
:101EC0008BA59CA520E030E04FE753E40E94101959
:101ED00018160CF07BC06DA57EA58FA598A920E0F3
:101EE00030E04AE754E40E946418DC01CB018CA383
:101EF0009DA3AEA3BFA36CA17DA18EA19FA120E055
:101F000030E04AE753E40E946A17DC01CB0188A362
:101F100099A3AAA3BBA368A179A18AA19BA120E050
:101F200030E040E85FE30E94701988232CF481E0E0
:101F300090E09F8F8E8F3FC068A179A18AA19BA15D
:101F400020E03FEF4FE757E40E94101918164CF5B8
:101F50006CA17DA18EA19FA120E030E040E251E480
:101F60000E946A17DC01CB01BC01CD010E949415CF
:101F7000DC01CB019F8F8E8F0FC089E190E09D8F98
:101F80008C8F8C8D9D8D0197F1F79D8F8C8F8E8D11
:101F90009F8D01979F8F8E8F8E8D9F8D009769F7F4
:101FA00024C068A179A18AA19BA10E949415DC019B
:101FB000CB019F8F8E8F8E8D9F8D9B8F8A8F8A8D69
:101FC0009B8D0197F1F79B8F8A8F0FC069A57AA52A
:101FD0008BA59CA50E949415DC01CB0188A788A540
:101FE000898F898D8A95F1F7898FABE3B0E0EBE3B8
:101FF000F0E080818F7B8C9380E090E0A0E8BFE3ED
:102000008D8B9E8BAF8BB88F6D897E898F89988DD4
:102010002BEA3AEA4AEA5EE30E946A17DC01CB0146
:10202000898B9A8BAB8BBC8B69897A898B899C89CC
:1020300020E030E040E85FE30E94701988231CF440
:1020400081E0888B91C069897A898B899C8920E09D
:1020500030E04FE753E40E94101918160CF07BC0D3
:102060006D897E898F89988D20E030E04AE754E4BD
:102070000E946418DC01CB018C879D87AE87BF87E7
:102080006C857D858E859F8520E030E04AE753E4AE
:102090000E946A17DC01CB0188879987AA87BB87D2
:1020A000688579858A859B8520E030E040E85FE39C
:1020B0000E94701988232CF481E090E09F838E8326
:1020C0003FC0688579858A859B8520E03FEF4FE793
:1020D00057E40E94101918164CF56C857D858E8585
:1020E0009F8520E030E040E251E40E946A17DC0165
:1020F000CB01BC01CD010E949415DC01CB019F8373
:102100008E830FC089E190E09D838C838C819D81BB
:102110000197F1F79D838C838E819F8101979F8327
:102120008E838E819F81009769F724C068857985A9
:102130008A859B850E949415DC01CB019F838E8349
:102140008E819F819B838A838A819B810197F1F78E
:102150009B838A830FC069897A898B899C890E94B5
:102160009415DC01CB01888B8889898389818A95C4
:10217000F1F78983FE01E555FF4F8081882309F03F
:10218000D1C9ABE3B0E0EBE3F0E080818F7D8C93CD
:10219000AAE3B0E0EAE3F0E080818F608C93C5555C
:1021A000DF4F0FB6F894DEBF0FBECDBFCF91DF91EA
:1021B0001F910F9108950F931F93DF93CF93CDB786
:1021C000DEB7C855D0400FB6F894DEBF0FBECDBF06
:1021D000FE01E85AFF4F8083FE01ED5AFF4F80E079
:1021E00090E0A0EFB1E480839183A283B3838E015A
:1021F000015B1F4FFE01ED5AFF4F608171818281AB
:10220000938120E030E04AE753E40E946A17DC0142
:10221000CB01F80180839183A283B383FE01E15B4C
:10222000FF4F608171818281938120E030E040E83E
:102230005FE30E947019882344F4FE01E35BFF4FC3
:1022400081E090E09183808364C0FE01E15BFF4FF9
:10225000608171818281938120E03FEF4FE757E4F5
:102260000E94101918160CF043C0FE01ED5AFF4FE2
:10227000608171818281938120E030E040E251E40D
:102280000E946A17DC01CB018E01035B1F4FBC016A
:10229000CD010E949415DC01CB01F801918380836C
:1022A0001FC0FE01E55BFF4F89E190E091838083D1
:1022B000FE01E55BFF4F808191810197F1F7FE01FF
:1022C000E55BFF4F91838083DE01A35BBF4FFE017F
:1022D000E35BFF4F80819181019711969C938E93D0
:1022E000FE01E35BFF4F808191810097D1F627C00B
:1022F0008E01035B1F4FFE01E15BFF4F6081718127
:10230000828193810E949415DC01CB01F8019183B5
:102310008083DE01A75BBF4FFE01E35BFF4F80813F
:1023200091818D939C93FE01E75BFF4F80819181AA
:102330000197F1F7FE01E75BFF4F91838083AAE3EA
:10234000B0E0EAE3F0E080818F608C93AAE3B0E034
:10235000EAE3F0E0808180648C93AAE3B0E0EAE3F2
:10236000F0E0808180618C93AAE3B0E0EAE3F0E0E2
:10237000808180628C93ABE3B0E0EBE3F0E080819E
:10238000807F8C93ABE3B0E0EBE3F0E080818F7B68
:102390008C93ABE3B0E0EBE3F0E080818F7D8C9336
:1023A000ABE3B0E0EBE3F0E080818F7E8C93FE0145
:1023B000EB5BFF4F8AE999E9A9E9BEE3808391834A
:1023C000A283B3838E010F5B1F4FFE01EB5BFF4FB8
:1023D00060817181828193812BEA3AEA4AEA5EE365
:1023E0000E946A17DC01CB01F80180839183A283EC
:1023F000B383FE01EF5BFF4F608171818281938126
:1024000020E030E040E85FE30E947019882334F454
:1024100081E0FE01E05CFF4F80839DC0FE01EF5B29
:10242000FF4F608171818281938120E030E04FE72E
:1024300053E40E94101918160CF07EC0FE01EB5BED
:10244000FF4F608171818281938120E030E04AE713
:1024500054E40E946418DC01CB018CAF9DAFAEAF99
:10246000BFAF6CAD7DAD8EAD9FAD20E030E04AE7F3
:1024700053E40E946A17DC01CB0188AF99AFAAAF81
:10248000BBAF68AD79AD8AAD9BAD20E030E040E8F0
:102490005FE30E94701988232CF481E090E09FABE9
:1024A0008EAB3FC068AD79AD8AAD9BAD20E03FEF0C
:1024B0004FE757E40E94101918164CF56CAD7DAD2E
:1024C0008EAD9FAD20E030E040E251E40E946A17FB
:1024D000DC01CB01BC01CD010E949415DC01CB01D4
:1024E0009FAB8EAB0FC089E190E09DAB8CAB8CA90C
:1024F0009DA90197F1F79DAB8CAB8EA99FA9019780
:102500009FAB8EAB8EA99FA9009769F72DC068ADD0
:1025100079AD8AAD9BAD0E949415DC01CB019FABD8
:102520008EAB8EA99FA99BAB8AAB8AA99BA9019769
:10253000F1F79BAB8AAB18C0FE01EF5BFF4F6081E8
:102540007181828193810E949415DC01CB01FE018F
:10255000E05CFF4F8083FE01E05CFF4F808189AB30
:1025600089A98A95F1F789ABABE3B0E0EBE3F0E042
:10257000808180648C93ABE3B0E0EBE3F0E080819A
:1025800082608C9380E090E0A0E8BFE38DA79EA7D7
:10259000AFA7B8AB6DA57EA58FA598A92BEA3AEA9F
:1025A0004AEA5EE30E946A17DC01CB0189A79AA779
:1025B000ABA7BCA769A57AA58BA59CA520E030E0B8
:1025C00040E85FE30E94701988231CF481E088A72B
:1025D00091C069A57AA58BA59CA520E030E04FE7C6
:1025E00053E40E94101918160CF07BC06DA57EA54F
:1025F0008FA598A920E030E04AE754E40E946418CF
:10260000DC01CB018CA39DA3AEA3BFA36CA17DA1D4
:102610008EA19FA120E030E04AE753E40E946A17B0
:10262000DC01CB0188A399A3AAA3BBA368A179A1CC
:102630008AA19BA120E030E040E85FE30E9470198E
:1026400088232CF481E090E09F8F8E8F3FC068A19B
:1026500079A18AA19BA120E03FEF4FE757E40E94B8
:10266000101918164CF56CA17DA18EA19FA120E038
:1026700030E040E251E40E946A17DC01CB01BC016A
:10268000CD010E949415DC01CB019F8F8E8F0FC06E
:1026900089E190E09D8F8C8F8C8D9D8D0197F1F756
:1026A0009D8F8C8F8E8D9F8D01979F8F8E8F8E8D9E
:1026B0009F8D009769F724C068A179A18AA19BA189
:1026C0000E949415DC01CB019F8F8E8F8E8D9F8D84
:1026D0009B8F8A8F8A8D9B8D0197F1F79B8F8A8FB5
:1026E0000FC069A57AA58BA59CA50E949415DC0155
:1026F000CB0188A788A5898F898D8A95F1F7898F65
:10270000ABE3B0E0EBE3F0E080818F7B8C9380E083
:1027100090E0A0E8BFE38D8B9E8BAF8BB88F6D8967
:102720007E898F89988D2BEA3AEA4AEA5EE30E9415
:102730006A17DC01CB01898B9A8BAB8BBC8B6989C7
:102740007A898B899C8920E030E040E85FE30E9431
:10275000701988231CF481E0888B91C069897A897B
:102760008B899C8920E030E04FE753E40E941019E8
:1027700018160CF07BC06D897E898F89988D20E0BA
:1027800030E04AE754E40E946418DC01CB018C87F6
:102790009D87AE87BF876C857D858E859F8520E070
:1027A00030E04AE753E40E946A17DC01CB018887D6
:1027B0009987AA87BB87688579858A859B8520E06C
:1027C00030E040E85FE30E94701988232CF481E038
:1027D00090E09F838E833FC0688579858A859B853D
:1027E00020E03FEF4FE757E40E94101918164CF510
:1027F0006C857D858E859F8520E030E040E251E448
:102800000E946A17DC01CB01BC01CD010E94941526
:10281000DC01CB019F838E830FC089E190E09D8313
:102820008C838C819D810197F1F79D838C838E81B0
:102830009F8101979F838E838E819F81009769F787
:1028400024C0688579858A859B850E949415DC0162
:10285000CB019F838E838E819F819B838A838A8114
:102860009B810197F1F79B838A830FC069897A89DD
:102870008B899C890E949415DC01CB01888B888907
:10288000898389818A95F1F789830E944309FE0132
:10289000E85AFF4F80818C6060E00E94070488E264
:1028A00060E00E94070480E460E00E940704FE01EB
:1028B000E95AFF4F108216C0FE01E95AFF4F80818E
:1028C000882F90E0FC01EB58FF4F808161E00E946F
:1028D0000704DE01A95ABF4FFE01E95AFF4F80816C
:1028E0008F5F8C93FE01E95AFF4F8081803420F383
:1028F00080E060E00E945615C85ADF4F0FB6F8948A
:10290000DEBF0FBECDBFCF91DF911F910F91089514
:10291000DF93CF9300D00F92CDB7DEB79B838A832E
:1029200030C0EA81FB818081853201F58A819B81FB
:1029300001969B838A83EA81FB818081805389830E
:102940008981882344F0898188302CF4898161E071
:102950000E94070411C085E261E00E940704EA8139
:10296000FB81808161E00E94070406C0EA81FB814F
:10297000808161E00E9407048A819B8101969B838C
:102980008A83EA81FB818081882359F60F900F901A
:102990000F90CF91DF910895DF93CF93CDB7DEB73E
:1029A0002D970FB6F894DEBF0FBECDBF9B878A87E9
:1029B0007D876C8785E0FE013596DF01282F1D920B
:1029C0002A95E9F784E090E09C838B831A82198230
:1029D0001EC0EB81FC818A859B852AE030E0B9012D
:1029E0000E94C01C282FCE010596E80FF91F2083F6
:1029F0008A859B852AE030E0B9010E94C01CCB018A
:102A00009B878A878B819C8101979C838B838A8596
:102A10009B850097F1F68C859D85AFEF8F3F9A07D8
:102A200089F405C089819A8101969A8389832981D5
:102A30003A81CE010596FC01E20FF31F80818823C5
:102A400089F308C085E090E02C853D85821B930BBF
:102A50009A8389838A859B85992324F48DE261E09A
:102A60000E94070489819A819C838B8311C02B81EA
:102A70003C81CE010596FC01E20FF31F8081805D51
:102A800061E00E9407048B819C8101969C838B836B
:102A90008B819C818530910554F32D960FB6F89467
:102AA000DEBF0FBECDBFCF91DF910895DF93CF93EF
:102AB00000D000D0CDB7DEB789836A8389818431A5
:102AC00060F58A81282F30E03C832B838B819C81A9
:102AD0008130910581F02B813C8122303105B4F0A9
:102AE0008B819C818230910551F02B813C81233078
:102AF000310549F00BC089818064898307C08981D1
:102B00008C5E898303C089818C5A8983898180681E
:102B10008983898160E00E9407040F900F900F90D5
:102B20000F90CF91DF910895EF92FF920F931F9333
:102B30007B018C0120E030E040E05FE40E9440191E
:102B400088238CF0C801B70120E030E040E05FE46A
:102B50000E940C170E94FE199B01AC0120503040CE
:102B60004040504806C0C801B7010E94FE199B01B1
:102B7000AC01B901CA011F910F91FF90EF90089528
:102B8000A0E0B0E0E6ECF5E10C94E71CDC012B01E1
:102B9000FA019C91923008F439C1EB0188818230AE
:102BA00008F433C1943069F4843009F02FC11196D0
:102BB0009C9111978981981709F428C1A5EBB0E081
:102BC00025C1843009F421C18230A9F4923009F082
:102BD0001DC19A01AD0188E0EA010990AE01E90149
:102BE00009929E018150C1F7E201898111969C9161
:102BF0008923818308C1923009F407C112962D9070
:102C00003C901397EB018A819B811496AD90BD9007
:102C1000CD90DC901797EC80FD800E811F81910193
:102C2000281B390BB90137FF04C066277727621BC1
:102C3000730B603271050CF061C0121613066CF54F
:102C400037014801062E04C09694879477946794C0
:102C50000A94D2F721E030E040E050E004C0220FB7
:102C6000331F441F551F6A95D2F721503040404012
:102C700050402E213F21402351232115310541058C
:102C8000510521F021E030E040E050E079018A0177
:102C9000E628F728082919293CC0232BD1F1260E54
:102CA000371E35014601062E04C09694879477940A
:102CB00067940A94D2F721E030E040E050E004C08D
:102CC000220F331F441F551F6A95D2F72150304001
:102CD000404050402A213B214C215D2121153105E6
:102CE0004105510521F021E030E040E050E059017C
:102CF0006A01A628B728C828D9280BC082159305D1
:102D00002CF01C01AA24BB24650103C0EE24FF247F
:102D1000870111969C91D20111968C91981709F414
:102D200045C0992339F0A80197012A193B094C099C
:102D30005D0906C0A60195012E193F09400B510BF4
:102D400057FD08C011823382228224833583468353
:102D500057831DC081E0818333822282882799278F
:102D6000DC01821B930BA40BB50B84839583A68394
:102D7000B7830DC0220F331F441F551F2483358393
:102D80004683578382819381019793838283248131
:102D9000358146815781DA01C9010197A109B1093D
:102DA0008F5F9F4FAF4FBF4328F30BC09183338298
:102DB0002282EA0CFB1C0C1D1D1DE482F582068399
:102DC000178383E08083248135814681578157FFB3
:102DD0001AC0C901AA2797FDA095BA2F81709070DB
:102DE000A070B0705695479537952795822B932BF9
:102DF000A42BB52B84839583A683B783828193818B
:102E0000019693838283DF0101C0D201CD01CDB74A
:102E1000DEB7E2E10C94031DA0E2B0E0E2E1F7E1ED
:102E20000C94F31C69837A838B839C832D833E836C
:102E30004F835887E9E0EE2EF12CEC0EFD1ECE01FB
:102E40000196B7010E94EF1B8E010F5E1F4FCE014E
:102E50000596B8010E94EF1B8A8991E089278A8B29
:102E6000C701B801AE01475E5F4F0E94C0150E94C6
:102E70001A1BA096E6E00C940F1DA0E2B0E0E3E47C
:102E8000F7E10C94F31C69837A838B839C832D83F5
:102E90003E834F835887F9E0EF2EF12CEC0EFD1E98
:102EA000CE010196B7010E94EF1B8E010F5E1F4FEE
:102EB000CE010596B8010E94EF1BC701B801AE0113
:102EC000475E5F4F0E94C0150E941A1BA096E6E065
:102ED0000C940F1DA0E2B0E0E0E7F7E10C94E71CD2
:102EE00069837A838B839C832D833E834F835887AA
:102EF000CE010196BE01675F7F4F0E94EF1BCE019E
:102F00000596BE016F5E7F4F0E94EF1B9985923040
:102F100088F089898230C8F0943019F4823051F4F5
:102F200004C0843029F4923081F485EB90E0C6C06F
:102F3000923049F420E09A858A89981321E02A8703
:102F4000CE010996BBC0823049F420E09A858A8977
:102F5000981321E02A8BCE014196B0C02D843E8487
:102F60004F8458886D887E888F88988CEE24FF2443
:102F70008701AA24BB24650140E050E060E070E0D6
:102F8000E0E0F0E0C10181709070892BE9F0E60C7F
:102F9000F71C081D191D9A01AB012A0D3B1D4C1D84
:102FA0005D1D80E090E0A0E0B0E0E614F7040805C5
:102FB000190520F481E090E0A0E0B0E0BA01A90199
:102FC000480F591F6A1F7B1FAA0CBB1CCC1CDD1CA1
:102FD00097FE08C081E090E0A0E0B0E0A82AB92AFE
:102FE000CA2ADB2A3196E032F10549F0660C771CDB
:102FF000881C991C5694479437942794C3CFFA851C
:10300000EA892B893C898B859C85280F391F2E5F87
:103010003F4F17C0CA0181709070892B61F01695DF
:103020000795F794E79480E090E0A0E0B0E8E82A04
:10303000F92A0A2B1B2B76956795579547952F5F95
:103040003F4F77FDE7CF0CC0440F551F661F771F1A
:1030500017FD4160EE0CFF1C001F111F2150304076
:10306000403090E0590790E0690790E4790760F3F9
:103070002B8F3C8FDB01CA018F779070A070B070EE
:1030800080349105A105B10561F447FD0AC0E11442
:10309000F1040105110529F0405C5F4F6F4F7F4F30
:1030A00040781A8EFE1711F081E08A8F4D8F5E8F67
:1030B0006F8F78A383E0898FCE0149960E941A1BF7
:1030C000A096E2E10C94031DA8E1B0E0EAE6F8E185
:1030D0000C94EF1C69837A838B839C832D833E83BE
:1030E0004F835887B9E0EB2EF12CEC0EFD1ECE017C
:1030F0000196B7010E94EF1B8E010F5E1F4FCE019C
:103100000596B8010E94EF1B2985223008F47EC085
:103110003989323010F4B8017CC08A859A898927B0
:103120008A87243011F0223031F4231709F06EC061
:1031300065EB70E06EC0343039F41D861E861F8644
:10314000188A1C861B8604C0323021F484E08987EB
:10315000B7015FC02B853C858B899C89281B390B67
:103160003C872B87ED84FE840F851889AD88BE8847
:10317000CF88D88CEA14FB040C051D0540F4EE0C36
:10318000FF1C001F111F215030403C872B8720E07F
:1031900030E040E050E080E090E0A0E0B0E460E0AB
:1031A00070E0EA14FB040C051D0540F0282B392BB8
:1031B0004A2B5B2BEA18FB080C091D09B695A7954D
:1031C00097958795EE0CFF1C001F111F6F5F7F4FB7
:1031D0006F31710531F7DA01C9018F779070A070F6
:1031E000B07080349105A105B10561F427FD0AC0D6
:1031F000E114F1040105110529F0205C3F4F4F4F08
:103200005F4F20782D873E874F87588BBE01675FC1
:103210007F4FCB010E941A1B6896EAE00C940B1DAD
:10322000A8E1B0E0E6E1F9E10C94F31C69837A834C
:103230008B839C832D833E834F83588789E0E82EC0
:10324000F12CEC0EFD1ECE010196B7010E94EF1B82
:103250008E010F5E1F4FCE010596B8010E94EF1B35
:103260008985823040F08989823028F0C701B80111
:103270000E94671C01C08FEF6896E6E00C940F1D5A
:10328000A8E1B0E0E6E4F9E10C94F31C69837A83E9
:103290008B839C832D833E834F83588789E0E82E60
:1032A000F12CEC0EFD1ECE010196B7010E94EF1B22
:1032B0008E010F5E1F4FCE010596B8010E94EF1BD5
:1032C0008985823040F08989823028F0C701B801B1
:1032D0000E94671C01C08FEF6896E6E00C940F1DFA
:1032E000A8E1B0E0E6E7F9E10C94F31C69837A8386
:1032F0008B839C832D833E834F83588789E0E82E00
:10330000F12CEC0EFD1ECE010196B7010E94EF1BC1
:103310008E010F5E1F4FCE010596B8010E94EF1B74
:103320008985823040F08989823028F0C701B80150
:103330000E94671C01C081E06896E6E00C940F1DB6
:10334000A8E0B0E0E6EAF9E10C94F01C9B01AC01C6
:1033500083E08983DA01C9018827B7FD839599271E
:10336000AA27BB27B82E211531054105510519F4AF
:1033700082E089833AC08823A9F0203080E03807B2
:1033800080E0480780E8580729F460E070E080E0BA
:103390009FEC30C0EE24FF248701E21AF30A040BED
:1033A000150B02C079018A018EE1C82ED12CDC8276
:1033B000CB82ED82FE820F831887C801B7010E947D
:1033C000CB1A01971816190684F4082E04C0EE0CC7
:1033D000FF1C001F111F0A94D2F7ED82FE820F839B
:1033E0001887C81AD90ADC82CB82BA82CE0101962C
:1033F0000E941A1B2896E9E00C940C1DACE0B0E08A
:10340000E4E0FAE10C94F71C69837A838B839C8354
:10341000CE010196BE016B5F7F4F0E94EF1B8D8135
:10342000823061F1823050F1843021F48E81882322
:1034300051F12EC02F81388537FD20C06E812F318C
:1034400031051CF06623F9F023C08EE190E0821B69
:10345000930B29853A854B855C8504C05695479525
:10346000379527958A95D2F76623B1F05095409508
:10347000309521953F4F4F4F5F4F0EC020E030E019
:1034800040E050E009C02FEF3FEF4FEF5FE704C08F
:1034900020E030E040E050E8B901CA012C96E2E0BB
:1034A0000C94131DA8E0B0E0E8E5FAE10C94EF1CE1
:1034B0007B018C01611571058105910519F482E08C
:1034C000898360C083E089838EE1C82ED12CDC82A1
:1034D000CB82ED82FE820F831887C801B7010E945C
:1034E000CB1AFC013197F7FF3BC0222733272E1B55
:1034F0003F0B57016801022E04C0D694C794B794BD
:10350000A7940A94D2F740E050E060E070E081E0D8
:1035100090E0A0E0B0E004C0880F991FAA1FBB1F75
:103520002A95D2F70197A109B1098E219F21A023E5
:10353000B1230097A105B10521F041E050E060E022
:1035400070E04A295B296C297D294D835E836F8356
:1035500078878EE190E08E1B9F0B9C838B8312C03B
:10356000309781F00E2E04C0EE0CFF1C001F111FBF
:103570000A94D2F7ED82FE820F831887CE1ADF0AF3
:10358000DC82CB821A82CE0101960E941A1B2896F9
:10359000EAE00C940B1DEF92FF920F931F937B01B7
:1035A0008C0180E0E81680E0F80681E0080780E002
:1035B000180788F48FEFE816F1040105110531F0C2
:1035C00028F088E090E0A0E0B0E017C080E090E054
:1035D000A0E0B0E012C080E0E81680E0F80680E0ED
:1035E000080781E0180728F088E190E0A0E0B0E04B
:1035F00004C080E190E0A0E0B0E020E230E040E0F4
:1036000050E0281B390B4A0B5B0B04C0169507953D
:10361000F794E7948A95D2F7F701E354FF4F80813E
:10362000281B310941095109C9011F910F91FF90D0
:10363000EF900895DF92EF92FF920F931F93FC019A
:10364000E480F58006811781D1808081823048F442
:1036500080E090E0A0E1B0E0E82AF92A0A2B1B2BD9
:10366000A5C0843009F49FC0823021F4EE24FF24E9
:10367000870105C0E114F1040105110519F4E0E02A
:10368000F0E096C0628173819FEF623879070CF099
:103690005BC022E83FEF261B370B2A3131052CF0A7
:1036A00020E030E040E050E02AC0B801A701022E3F
:1036B00004C076956795579547950A94D2F781E0AF
:1036C00090E0A0E0B0E004C0880F991FAA1FBB1FC4
:1036D0002A95D2F70197A109B1098E219F21A02334
:1036E000B1230097A105B10521F081E090E0A0E0B1
:1036F000B0E09A01AB01282B392B4A2B5B2BDA0166
:10370000C9018F779070A070B07080349105A105C9
:10371000B10539F427FF09C0205C3F4F4F4F5F4F81
:1037200004C0215C3F4F4F4F5F4FE0E0F0E020309E
:10373000A0E03A07A0E04A07A0E45A0710F0E1E051
:10374000F0E079018A0127C06038710564F5FB015A
:10375000E158FF4FD801C7018F779070A070B0700B
:1037600080349105A105B10539F4E7FE0DC080E470
:1037700090E0A0E0B0E004C08FE390E0A0E0B0E013
:10378000E80EF91E0A1F1B1F17FF05C016950795A7
:10379000F794E794319687E016950795F794E794A8
:1037A0008A95D1F705C0EE24FF248701EFEFF0E002
:1037B0006E2F679566276795902F9F77D794DD24A6
:1037C000D7948E2F8695492F462B582F5D29B70108
:1037D000CA011F910F91FF90EF90DF900895FC01B7
:1037E000DB01408151812281622F6F7770E0221FBF
:1037F0002227221F9381892F880F822B282F30E0C8
:10380000991F9927991F11969C931197211531059E
:10381000A9F5411551056105710511F482E037C024
:1038200082E89FEF13969C938E9312979A01AB01B7
:1038300067E0220F331F441F551F6A95D1F783E0BD
:103840008C930DC0220F331F441F551F12968D916C
:103850009C911397019713969C938E931297203007
:1038600080E0380780E0480780E4580758F3149652
:103870002D933D934D935C93179708952F3F3105FA
:1038800079F4411551056105710519F484E08C93B3
:10389000089564FF03C081E08C9312C01C9210C095
:1038A0002F57304013963C932E93129783E08C93BE
:1038B00087E0440F551F661F771F8A95D1F7706404
:1038C00014964D935D936D937C93179708951F9372
:1038D000DC01FB019C91923008F447C0808182306A
:1038E00008F443C0943051F411961C91843099F53A
:1038F0008181682F70E0611B71093FC0843021F025
:10390000923031F48230B9F18181882389F12DC060
:1039100011961C9111978230F1F081811817D9F41A
:1039200012962D913C911397828193818217930770
:1039300094F028173907BCF014968D919D910D9045
:10394000BC91A02D248135814681578128173907E4
:103950004A075B0718F4112341F00AC08217930746
:10396000A407B50740F4112319F061E070E005C029
:103970006FEF7FEF02C060E070E0CB011F91089510
:1039800097FB092E07260AD077FD04D00CD006D06D
:1039900000201AF4709561957F4F0895F6F7909581
:1039A00081959F4F0895AA1BBB1B51E107C0AA1F19
:1039B000BB1FA617B70710F0A61BB70B881F991FD0
:1039C0005A95A9F780959095BC01CD0108952F9245
:1039D0003F924F925F926F927F928F929F92AF929F
:1039E000BF92CF92DF92EF92FF920F931F93CF93EC
:1039F000DF93CDB7DEB7CA1BDB0B0FB6F894DEBF83
:103A00000FBECDBF09942A88398848885F846E84A8
:103A10007D848C849B84AA84B984C884DF80EE80F2
:103A2000FD800C811B81AA81B981CE0FD11D0FB6FB
:103A3000F894DEBF0FBECDBFED010895FC010190EB
:103A40000020E9F7809590958E0F9F1F0895F894B8
:023A5000FFCFA6
:103A5200736F7300534F53203D202E2E2E5F5F5FF6
:103A62005F2E2E2E000C12120C000000000C12040D
:103A7200081E0000000A15110A04000000030509CF
:103A82000B0B1818001F0E0E040404040401010598
:103A920005151515000E11111F1F1F1F0000000034
:103AA2000000000000000000000000000000010211
:103AB20002030303030404040404040404050505C7
:103AC20005050505050505050505050505060606A1
:103AD2000606060606060606060606060606060684
:103AE2000606060606060606060606060607070771
:103AF2000707070707070707070707070707070754
:103B02000707070707070707070707070707070743
:103B12000707070707070707070707070707070733
:103B22000707070707070707070707070708080820
:103B32000808080808080808080808080808080803
:103B420008080808080808080808080808080808F3
:103B520008080808080808080808080808080808E3
:103B620008080808080808080808080808080808D3
:103B720008080808080808080808080808080808C3
:103B820008080808080808080808080808080808B3
:103B920008080808080808080808080808080808A3
:0E3BA2000808080808080808080808080800AD
:00000001FF
