:100000000C94C0000C94DD000C94DD000C94DD0019
:100010000C94DD000C94DD000C94DD000C94DD00EC
:100020000C94DD000C94DD000C94DD000C94DD00DC
:100030000C94DD000C94DD000C94DD000C94DD00CC
:100040000C94DD000C94DD000C94DD000C94DD00BC
:100050000C94DD00036EDB363D9A9999993DABAA6D
:10006000AA2A3E000000803F084AD73B3BCE016EE3
:1000700084BCBFFDC12F3D6C74319ABD56833DDAFF
:100080003D00C77F11BED9E4BB4C3E916BAAAABE0E
:10009000000000803F072C7AA5BA6CC590DA3B932C
:1000A00065FC8BBC53F810FD3C5692834DBD879D7B
:1000B0003AB63DCBC9BF5BBE73DA0FC93F05A84C4A
:1000C000CDB2D44EB93836A9020C50B99186880801
:1000D0003CA6AAAA2ABE000000803F0664EC1B3C96
:1000E00004BC163E3BE5B93CC93C37C29E5A3D664E
:1000F0000498083EEA69AAAA3E000000803F076310
:100100004236B79BD8A71A39685618AEBAAB558C89
:100110001D3CB7CC5763BD6DEDFD753EF6177231D2
:10012000BF000000803F08000000BE922449123E3C
:10013000ABAAAA2ABECDCCCC4C3E00000080BEAB00
:10014000AAAAAA3E00000000BF000000803F0000F5
:10015000000000084178D3BB4387D1133D190E3C02
:10016000C3BD4282AD2B3E68EC8276BED98FE1A939
:100170003E4C80EFFFBE01C4FF7F3F000000000047
:1001800011241FBECFE5D4E0DEBFCDBF10E0A0E656
:10019000B0E0E6E6F3E102C005900D92AE37B1079C
:1001A000D9F710E0AEE7B0E001C01D92A13DB10764
:1001B000E1F70E9480010C94B1090C940000209199
:1001C000800030918100F901EE0FFF1FEE0FFF1F3D
:1001D000E857FF4F60837183828393832F5F3F4F84
:1001E00030938100209380000895E0918000F09189
:1001F00081003197F0938100E0938000EE0FFF1FA4
:10020000EE0FFF1FE857FF4F20813181428153815C
:10021000B901CA010895E0918000F0918100EE0FCC
:10022000FF1FEE0FFF1FEC57FF4F6081718182812E
:1002300093810E940406CB010895809180009091E3
:10024000810008952091CF003091D000F901E6534C
:10025000FF4F80832F5F3F4F3093D0002093CF001C
:100260000895E091CF00F091D0003197F093D00045
:10027000E093CF00E653FF4F808108958091CF0037
:100280009091D0000895E091CF00F091D000E75315
:10029000FF4F808190E008958B32C9F08D32B9F024
:1002A0008A32C1F08F32B1F08237B9F08037A9F0CD
:1002B000843799F08A3789F0833779F0883769F085
:1002C000833659F0893749F023E030E008C020E058
:1002D00030E005C021E030E002C022E030E0C9019A
:1002E000089520E030E080538A3010F421E030E0BF
:1002F000C9010895282F30E020533040C9010895E6
:100300000E94E30380E690E00E94400480E090E0D9
:1003100008958F929F92AF92BF92CF92DF92EF9209
:10032000FF920F934B015C0169017A01023709F4D6
:1003300057C0033798F40F32C9F1003340F40B3241
:1003400001F10D3229F10A3209F0D7C028C0033675
:1003500009F48BC0003709F0D0C036C0083709F463
:100360006BC0093738F4033709F455C0043709F076
:10037000C4C03BC0093709F489C00A3709F0BDC0C1
:1003800045C0CA01B901A50194010E94F204B3C09D
:10039000CA01B901A50194010E94F104ACC0CA01CF
:1003A000B901A50194010E943F07A5C020E030E0FB
:1003B00040E050E00E949505882309F47BC0C70106
:1003C000B601A501940195C0CA01B901A501940126
:1003D0000E94A207AC01CB01DA016C017D018DC046
:1003E000CA01B9010E94F80786C0CA01B90123EC0D
:1003F00035EF48E450E40E943F0720E030E044E35A
:1004000053E40E949C050E94390875C0CA01B901D5
:100410000E946D0564C0CA01B90123EC35EF48E4C0
:1004200050E40E943F0720E030E044E353E40E94A0
:100430009C050E94EE075FC0CA01B90120E030E0D0
:1004400040E85FE30E9434071816A4F1C701B60123
:1004500020E030E040E85FEB0E949505882354F1EE
:10046000C701B6010E9456053AC0CA01B90123EC82
:1004700035EF48E450E40E943F0720E030E044E3D9
:1004800053E40E949C050E94990535C0CA01B90138
:1004900020E030E040E85FE30E943407181654F093
:1004A000C701B60120E030E040E85FEB0E9495050F
:1004B00088238CF481E090E09093B9008093B80099
:1004C0000F2EF0E0CF2EF0E0DF2EF0E0EF2EF0E088
:1004D000FF2EF02D12C0C701B6010E94E30420E0F8
:1004E00030E044E353E40E943F0723EC35EF48E457
:1004F00050E40E949C056B017C01B601C7010F917D
:10050000FF90EF90DF90CF90BF90AF909F908F9033
:1005100008951092B9001092B8001092D000109275
:10052000CF00109281001092800080E090E0A0E067
:10053000B0E08093B0009093B100A093B200B0936C
:10054000B30081E090E09093850080938400109246
:100550007F0010927E0080E1EAEBF0E0DF011D9267
:100560008A95E9F708956F927F928F929F92AF924A
:10057000BF92CF92DF92EF92FF920F931F93DF9380
:10058000CF93CDB7DEB7A0970FB6F894DEBF0FBEFE
:10059000CDBF7B018C0180E1FE013196DF01982FF8
:1005A0001D929A95E9F7FE017196DF01982F1D9231
:1005B0009A95E9F7EAEBF0E0DF011D928A95E9F7F9
:1005C000C801B70120E030E040E050E00E9495050E
:1005D00087FD03C0882499240AC017FB109517F9DA
:1005E00010958DE28093BA00E1E08E2E912CC80127
:1005F000B7010E9404066B01C801B70120E030E09A
:1006000040E251E40E943F077B018C010E940406F6
:10061000DC01CB016AE070E00E949E099C01AA24E3
:10062000BB2471E1672E712C6C0E7D1E1CC0F30182
:10063000EA0DFB1D822F805D80830894A11CB11CF4
:10064000C801B70120E030E040E251E40E943F07DA
:100650007B018C010E940406DC01CB016AE070E0A2
:100660000E949E099C01C9010197099700F3C114DA
:10067000D10419F000E010E004C080E3898301E0B8
:1006800010E0FE013196E00FF11F0FC0C6016AE0D5
:1006900070E00E949E09805D81930F5F1F4FC6012D
:1006A0006AE070E00E949E096B01C114D10471F7E9
:1006B000FE01E00FF11FD401A654BF4F9401A80121
:1006C000480D591D05C080818D932F5F3F4F319795
:1006D00024173507C4F389898823C1F0F901E6544A
:1006E000FF4F8EE28083D901A554BF4F20E030E058
:1006F000AE014F5E5F4F07C0FA01E20FF31F80812A
:100700008D932F5F3F4F2A153B05B4F3A0960FB68C
:10071000F894DEBF0FBECDBFCF91DF911F910F9137
:10072000FF90EF90DF90CF90BF90AF909F908F9011
:100730007F906F900895DF93CF9300D0CDB7DEB751
:100740008A8382958F708983AC98FE013196898166
:1007500080FDAC9AAD98808181FDAD9AAE98808184
:1007600082FDAE9AAF98808183FDAF9AAB9AAB9829
:10077000AC98FE0132968A8180FDAC9AAD9880815A
:1007800081FDAD9AAE98808182FDAE9AAF9880814E
:1007900083FDAF9AAB9AAB980F900F90CF91DF91FA
:1007A0000895E0E4FCE93197F1F7A99AAA980E942C
:1007B0009B030895E0E4FCE93197F1F7A998AA9822
:1007C0000E949B03089584B3806F84BB84B38E60C2
:1007D00084BB80E49CE90197F1F7A998AA9885B3B6
:1007E0008F7285BBAD9AAB9AAB9880E20E94DA0318
:1007F0008CE00E94DA0386E00E94DA0381E00E9426
:10080000DA03089580E49CE90197F1F708950895CB
:100810000F931F9364E670E00E948A09182F092F36
:100820006AE070E00E948A09862F805D0E94D103F1
:10083000812F902F6AE070E00E948A09805D0E94FB
:10084000D1031F910F910895CF93DF93EC0124E022
:10085000969587952A95E1F78A3010F0895C01C05A
:10086000805D0E94D1039E012F70822F2A3010F0EC
:10087000895C01C0805D0E94D103DF91CF91089512
:100880000F931F93CF93DF938C01C0E0D0E002C0A1
:100890000E94D103F801EC0FFD1F8081882321F015
:1008A0002196C131D105A1F7DF91CF911F910F9111
:1008B0000895EF92FF920F931F938C017B0181E0CB
:1008C0000E94DA03C8010E94400480EC0E94DA030F
:1008D000C7010E9440041F910F91FF90EF9008956F
:1008E00088EF8ABB87E08BBB8FE881BB80E782BB48
:1008F000089540E050E064E070E0E0E8F0E0A7E058
:100900008BB39F01062E02C0359527950A94E2F716
:10091000922F909598239BBBA9BBC89903C0C89BF5
:10092000FECF4FC0C99903C0C99BFECF2BC0CA9947
:1009300003C0CA9BFECF2DC04D5F5F4F8BB3282BEA
:100940002BBB615070404C305105D1F663E070E034
:10095000BFEFE1E0F0E0A0E7B2BB22B3CF01062E8B
:1009600002C0880F991F0A94E2F78095822382BB08
:10097000A0BB859903C0859BFECF23C0869905C087
:10098000869BFECF4F5F5F4F1CC0849905C0849B40
:10099000FECF4E5F5F4F15C022B3CF01062E02C0BF
:1009A000959587950A94E2F7282B22BB61507040F9
:1009B0008FEF6F3F780719F04D5F5F4FCDCF4FEF4F
:1009C0005FEFCA0108959F939F774FD10F9000204A
:1009D0003AF49058A2EA2AED3FE049E450E413D0FB
:1009E000F8C15058BB27AA270ED0F3C1BCD130F0B4
:1009F000C1D120F031F49F3F11F41EF47BC10EF4FD
:100A0000E095E7FB71C1E92F06D280F3BA176207C0
:100A100073078407950718F071F49EF51EC20EF453
:100A2000E0950B2EBA2FA02D0B01B90190010C01FE
:100A3000CA01A0011124FF27591B99F0593F50F416
:100A4000503E68F11A16F040A22F232F342F44276E
:100A5000585FF3CF469537952795A795F040539566
:100A6000C9F77EF41F16BA0B620B730B840BBAF036
:100A70009150A1F0FF0FBB1F661F771F881FC2F7A1
:100A80000EC0BA0F621F731F841F48F487957795B5
:100A90006795B795F7959E3F08F0B3CF9395880F6C
:100AA00008F09927EE0F9795879508959F939F7764
:100AB000EEE389379E0720F4E4E5F0E043D109C076
:100AC000D4D09058A2EA2AED3FE049EC5FE39BDFE7
:100AD00080D10F9007FC90580895DF93DD27B92F40
:100AE000BF7740E85FE31616170648075B0710F468
:100AF000D92FBED19F938F937F936F93B7D2E8E6A0
:100B0000F0E0FBD066D12F913F914F915F91C3D11F
:100B1000DD2349F09058A2EA2AED3FE049EC5FE37B
:100B2000D0785D2770DFDF9154C1BAD008F481E03E
:100B3000089528D1E3955EC10CD04BC11BD140F084
:100B400012D130F021F45F3F19F0CEC0511186C1AF
:100B5000D1C061D198F39923C9F35523B1F3951B03
:100B6000550BBB27AA2762177307840738F09F5FCE
:100B70005F4F220F331F441FAA1FA9F333D00E2E3D
:100B80003AF0E0E830D091505040E695001CCAF7AA
:100B900029D0FE2F27D0660F771F881FBB1F26176F
:100BA00037074807AB07B0E809F0BB0B802DBF0142
:100BB000FF2793585F4F2AF09E3F510568F094C07D
:100BC0004DC15F3FECF3983EDCF3869577956795D2
:100BD000B795F7959F5FC9F7880F911D96958795F3
:100BE00097F90895E1E0660F771F881FBB1F621712
:100BF00073078407BA0720F0621B730B840BBA0BD0
:100C0000EE1F88F7E095089504D06894B11126C1CD
:100C1000089509D188F09F5790F0B92F9927B751BF
:100C2000A0F0D1F0660F771F881F991F1AF0BA95B0
:100C3000C9F712C0B13081F010D1B1E008950DC1F3
:100C4000672F782F8827B85F39F0B93FCCF38695A6
:100C500077956795B395D9F73EF490958095709503
:100C600061957F4F8F4F9F4F0895DF93CF931F93D1
:100C70000F938B01EC01E5E9F0E03FD0AAD0980199
:100C8000AE018B01EC0160E070E080E89FE3A9DE3B
:100C9000AFD19801AE010F911F91CF91DF91FBC0B1
:100CA000990F0008550FAA0BE0E8FEEF161617067D
:100CB000E807F907C0F012161306E407F50798F0E5
:100CC000621B730B840B950B39F40A2661F0232BFE
:100CD000242B252B21F408950A2609F4A140A6957A
:100CE0008FEF811D811D089597F99F6780E870E05F
:100CF00060E008959FEF80EC0895DF93CF931F93FA
:100D00000F93FF92EF92DF927B018C01689405C0F4
:100D1000DA2EEF01C0D0FE01E894A591259135911E
:100D200045915591AEF3EF016EDEFE019701A801EA
:100D3000DA9479F7DF90EF90FF900F911F91CF91A8
:100D4000DF9108959F938F937F936F93FF93EF931A
:100D50009B01AC0194D0EF91FF91CFDF2F913F9198
:100D60004F915F918CC000240A941616170618063E
:100D70000906089500240A9412161306140605069F
:100D80000895B8CF50D0E8F3E894E0E0BB279F5730
:100D9000F0F02AED3FE049EC06C0EE0FBB0F661FF6
:100DA000771F881F28F0B23A62077307840728F07C
:100DB000B25A620B730B840BE3959A9572F78038E5
:100DC00030F49A95BB0F661F771F881FD2F79048A3
:100DD000A3C1092E0394000C11F4882352F0BB0F19
:100DE00040F4BF2B11F460FF04C06F5F7F4F8F4F43
:100DF0009F4F0895EF93E0FF06C0A2EA2AED3FE07F
:100E000049EC5FEB00DEE5DF0F90039401FC9058A6
:100E1000EDEBF0E097CF57FD9058440F551F59F078
:100E20005F3F71F04795880F97FB991F61F09F3FD7
:100E300079F087950895121613061406551FF2CF00
:100E40004695F1DF08C0161617061806991FF1CF50
:100E500086957105610508940895E894BB27662777
:100E60007727CB0197F908951BDF08F48FEF0895DA
:100E70009B01AC0160E070E080E89FE35DCE0BD0A9
:100E8000A8CF71DF28F076DF18F0952309F02CCF7A
:100E900031CF1124E3CFBFDFA0F3959FD1F3950F9E
:100EA00050E0551F629FF001729FBB27F00DB11DEE
:100EB000639FAA27F00DB11DAA1F649F6627B00D7E
:100EC000A11D661F829F2227B00DA11D621F739F67
:100ED000B00DA11D621F839FA00D611D221F749F75
:100EE0003327A00D611D231F849F600D211D822FBC
:100EF000762F6A2F11249F5750408AF0E1F0882303
:100F00004AF0EE0FFF1FBB1F661F771F881F91500F
:100F10005040A9F79E3F510570F0E6CE9FCF5F3F4E
:100F2000ECF3983EDCF3869577956795B795F79542
:100F3000E7959F5FC1F7FE2B880F911D96958795CA
:100F400097F90895FA01EE0FFF1F3096210531053C
:100F500099F16115710561F48038BFE39B0749F190
:100F600068949038810561F08038BFEF9B0741F0AD
:100F7000992342F5FF3FE1053105210511F1E89480
:100F80000894E795D901AA2329F4AB2FBE2FF85F67
:100F9000D0F310C0FF5F70F4A695E0F7F73950F07A
:100FA00019F0FF3A38F49F779F930CD00F9007FC0D
:100FB000905808953EF09ECE60E070E080E89FE398
:100FC00008954FE79F775F934F933F932F93F2D00E
:100FD0002F913F914F915F9152DF70C09F93D2DE6E
:100FE0000F9007FCEE5F06CF11F40EF483CE92C093
:100FF0001ADFD0F39923D9F3CEF39F57550B87FF10
:1010000097D00024A0E640EA900180585695979525
:1010100028F4805C660F771F881F20F0261737079B
:10102000480730F4621B730B840B202931294A2BAB
:10103000A69517940794202531254A2758F7660F5F
:10104000771F881F20F026173707480730F4620BF8
:10105000730B840B200D311D411DA09581F7B90143
:10106000842F9158880F9695879508959B01AC0120
:1010700006CFDF93D92F86DEE695D7952AED3FE0A0
:1010800049E45FE3B33A6207730784079507D7958E
:101090002AF0A2EA49EC9068B6DC9BDEEBEDF0E0CA
:1010A00051DEDD0F0BF0E4DEDD0F0BF49058DF9125
:1010B000089519F40EF018CED0CE1CCEB4DEC8F3CD
:1010C0009638C0F707F80F92E8942BE33AEA48EB1A
:1010D0005FE7E3DE0F920F920F924DB75EB70F926C
:1010E000A9D0EEEFF0E009DE4F915F91EF91FF9113
:1010F000E595EE1FFF1F49F0FE57E0684427EE0F0D
:10110000441FFA95E1F74195550B1BD00F9007FE50
:10111000AFCE08959F3F31F0915020F48795779599
:101120006795B795880F911D9695879597F90895BE
:1011300091505040660F771F881FD2F70895D4CD85
:10114000E9CF71DEE8F39923D9F3940F511DBBF376
:101150009150504094F059F0882332F0660F771F79
:10116000881F91505040C1F79E3F510544F7880FAA
:10117000911D9695879597F908955F3FACF0983E3D
:101180009CF0BB27869577956795B79508F4B16075
:101190009395C1F7BB0F58F711F460FFE8CF6F5F6D
:1011A0007F4F8F4F9F4FE3CF59CE0EF0B3CFA2CDDD
:1011B00068949ACD38DEC8F39923D1F3C6F3DF9350
:1011C000CF931F930F93FF92C92FDD2788232AF017
:1011D0002197660F771F881FDAF720E030E040E89C
:1011E0005FEB9FE3883920F0803E30F021968F77C7
:1011F000F9DBE6E2F1E003C0F5DBE3E5F1E07DDDFC
:101200008B01BE01EC01FB2E6F5771097595771F9D
:10121000880B990B44D028E132E741E35FE33BDEE2
:10122000AF2D9801AE01FF900F911F91CF91DF91EB
:10123000EADBCFCDFA01DC01AA0FBB1F9B01AC0199
:10124000BF5728F422273327442750781FC0B751AF
:1012500088F4AB2F0024469537952795011CA3955C
:10126000D2F3002069F0220F331F441FB395DAF345
:101270000DD0B7CB61307105A0E88A07B94630F4CC
:101280009B01AC016627772788279078309621F05C
:1012900020833183428353830895E89409C097FBE8
:1012A0003EF490958095709561957F4F8F4F9F4F3D
:1012B0009923A9F0F92F96E9BB279395F695879581
:1012C00077956795B795F111F8CFFAF4BB0F11F444
:1012D00060FF1BC06F5F7F4F8F4F9F4F16C08823EB
:1012E00011F096E911C0772321F09EE8872F762F21
:1012F00005C0662371F096E8862F70E060E02AF062
:101300009A95660F771F881FDAF7880F969587954D
:1013100097F90895AA1BBB1B51E107C0AA1FBB1F69
:10132000A617B70710F0A61BB70B881F991F5A9571
:10133000A9F780959095BC01CD01089597FB092EE2
:1013400007260AD077FD04D0E5DF06D000201AF486
:10135000709561957F4F0895F6F7909581959F4F11
:061360000895F894FFCF90
:101366005354415254003132333435363738396F9D
:0E137600303D2B2D2A2F72707473632E787900
:00000001FF
